{
  "_format": "hh-sol-artifact-1",
  "contractName": "AccessToken",
  "sourceName": "contracts/AccessToken.sol",
  "abi": [
    {
      "inputs": [
        {
          "internalType": "string",
          "name": "_baseUri",
          "type": "string"
        }
      ],
      "stateMutability": "nonpayable",
      "type": "constructor"
    },
    {
      "anonymous": false,
      "inputs": [
        {
          "indexed": true,
          "internalType": "address",
          "name": "account",
          "type": "address"
        },
        {
          "indexed": true,
          "internalType": "address",
          "name": "operator",
          "type": "address"
        },
        {
          "indexed": false,
          "internalType": "bool",
          "name": "approved",
          "type": "bool"
        }
      ],
      "name": "ApprovalForAll",
      "type": "event"
    },
    {
      "anonymous": false,
      "inputs": [
        {
          "indexed": true,
          "internalType": "address",
          "name": "previousOwner",
          "type": "address"
        },
        {
          "indexed": true,
          "internalType": "address",
          "name": "newOwner",
          "type": "address"
        }
      ],
      "name": "OwnershipTransferred",
      "type": "event"
    },
    {
      "anonymous": false,
      "inputs": [
        {
          "indexed": true,
          "internalType": "address",
          "name": "operator",
          "type": "address"
        },
        {
          "indexed": true,
          "internalType": "address",
          "name": "from",
          "type": "address"
        },
        {
          "indexed": true,
          "internalType": "address",
          "name": "to",
          "type": "address"
        },
        {
          "indexed": false,
          "internalType": "uint256[]",
          "name": "ids",
          "type": "uint256[]"
        },
        {
          "indexed": false,
          "internalType": "uint256[]",
          "name": "values",
          "type": "uint256[]"
        }
      ],
      "name": "TransferBatch",
      "type": "event"
    },
    {
      "anonymous": false,
      "inputs": [
        {
          "indexed": true,
          "internalType": "address",
          "name": "operator",
          "type": "address"
        },
        {
          "indexed": true,
          "internalType": "address",
          "name": "from",
          "type": "address"
        },
        {
          "indexed": true,
          "internalType": "address",
          "name": "to",
          "type": "address"
        },
        {
          "indexed": false,
          "internalType": "uint256",
          "name": "id",
          "type": "uint256"
        },
        {
          "indexed": false,
          "internalType": "uint256",
          "name": "value",
          "type": "uint256"
        }
      ],
      "name": "TransferSingle",
      "type": "event"
    },
    {
      "anonymous": false,
      "inputs": [
        {
          "indexed": false,
          "internalType": "string",
          "name": "value",
          "type": "string"
        },
        {
          "indexed": true,
          "internalType": "uint256",
          "name": "id",
          "type": "uint256"
        }
      ],
      "name": "URI",
      "type": "event"
    },
    {
      "inputs": [
        {
          "internalType": "address",
          "name": "account",
          "type": "address"
        },
        {
          "internalType": "string",
          "name": "slug",
          "type": "string"
        }
      ],
      "name": "authenticate",
      "outputs": [
        {
          "internalType": "bool",
          "name": "",
          "type": "bool"
        }
      ],
      "stateMutability": "view",
      "type": "function"
    },
    {
      "inputs": [
        {
          "internalType": "address",
          "name": "account",
          "type": "address"
        },
        {
          "internalType": "uint256",
          "name": "id",
          "type": "uint256"
        }
      ],
      "name": "balanceOf",
      "outputs": [
        {
          "internalType": "uint256",
          "name": "",
          "type": "uint256"
        }
      ],
      "stateMutability": "view",
      "type": "function"
    },
    {
      "inputs": [
        {
          "internalType": "address[]",
          "name": "accounts",
          "type": "address[]"
        },
        {
          "internalType": "uint256[]",
          "name": "ids",
          "type": "uint256[]"
        }
      ],
      "name": "balanceOfBatch",
      "outputs": [
        {
          "internalType": "uint256[]",
          "name": "",
          "type": "uint256[]"
        }
      ],
      "stateMutability": "view",
      "type": "function"
    },
    {
      "inputs": [],
      "name": "baseUri",
      "outputs": [
        {
          "internalType": "string",
          "name": "",
          "type": "string"
        }
      ],
      "stateMutability": "view",
      "type": "function"
    },
    {
      "inputs": [],
      "name": "getTokens",
      "outputs": [
        {
          "components": [
            {
              "internalType": "uint256",
              "name": "tokenId",
              "type": "uint256"
            },
            {
              "internalType": "uint256",
              "name": "amount",
              "type": "uint256"
            },
            {
              "internalType": "uint256",
              "name": "price",
              "type": "uint256"
            },
            {
              "internalType": "string",
              "name": "slug",
              "type": "string"
            },
            {
              "internalType": "string",
              "name": "ipfsHash",
              "type": "string"
            }
          ],
          "internalType": "struct AccessToken.Token[]",
          "name": "",
          "type": "tuple[]"
        }
      ],
      "stateMutability": "view",
      "type": "function"
    },
    {
      "inputs": [
        {
          "internalType": "address",
          "name": "account",
          "type": "address"
        },
        {
          "internalType": "address",
          "name": "operator",
          "type": "address"
        }
      ],
      "name": "isApprovedForAll",
      "outputs": [
        {
          "internalType": "bool",
          "name": "",
          "type": "bool"
        }
      ],
      "stateMutability": "view",
      "type": "function"
    },
    {
      "inputs": [
        {
          "internalType": "string",
          "name": "slug",
          "type": "string"
        },
        {
          "internalType": "uint256",
          "name": "amount",
          "type": "uint256"
        },
        {
          "internalType": "uint256",
          "name": "price",
          "type": "uint256"
        },
        {
          "internalType": "string",
          "name": "ipfsHash",
          "type": "string"
        }
      ],
      "name": "mint",
      "outputs": [],
      "stateMutability": "nonpayable",
      "type": "function"
    },
    {
      "inputs": [
        {
          "internalType": "address",
          "name": "",
          "type": "address"
        },
        {
          "internalType": "address",
          "name": "",
          "type": "address"
        },
        {
          "internalType": "uint256[]",
          "name": "",
          "type": "uint256[]"
        },
        {
          "internalType": "uint256[]",
          "name": "",
          "type": "uint256[]"
        },
        {
          "internalType": "bytes",
          "name": "",
          "type": "bytes"
        }
      ],
      "name": "onERC1155BatchReceived",
      "outputs": [
        {
          "internalType": "bytes4",
          "name": "",
          "type": "bytes4"
        }
      ],
      "stateMutability": "nonpayable",
      "type": "function"
    },
    {
      "inputs": [
        {
          "internalType": "address",
          "name": "",
          "type": "address"
        },
        {
          "internalType": "address",
          "name": "",
          "type": "address"
        },
        {
          "internalType": "uint256",
          "name": "",
          "type": "uint256"
        },
        {
          "internalType": "uint256",
          "name": "",
          "type": "uint256"
        },
        {
          "internalType": "bytes",
          "name": "",
          "type": "bytes"
        }
      ],
      "name": "onERC1155Received",
      "outputs": [
        {
          "internalType": "bytes4",
          "name": "",
          "type": "bytes4"
        }
      ],
      "stateMutability": "nonpayable",
      "type": "function"
    },
    {
      "inputs": [],
      "name": "owner",
      "outputs": [
        {
          "internalType": "address",
          "name": "",
          "type": "address"
        }
      ],
      "stateMutability": "view",
      "type": "function"
    },
    {
      "inputs": [
        {
          "internalType": "uint256",
          "name": "tokenId",
          "type": "uint256"
        }
      ],
      "name": "purchase",
      "outputs": [],
      "stateMutability": "payable",
      "type": "function"
    },
    {
      "inputs": [],
      "name": "renounceOwnership",
      "outputs": [],
      "stateMutability": "nonpayable",
      "type": "function"
    },
    {
      "inputs": [
        {
          "internalType": "address",
          "name": "from",
          "type": "address"
        },
        {
          "internalType": "address",
          "name": "to",
          "type": "address"
        },
        {
          "internalType": "uint256[]",
          "name": "ids",
          "type": "uint256[]"
        },
        {
          "internalType": "uint256[]",
          "name": "amounts",
          "type": "uint256[]"
        },
        {
          "internalType": "bytes",
          "name": "data",
          "type": "bytes"
        }
      ],
      "name": "safeBatchTransferFrom",
      "outputs": [],
      "stateMutability": "nonpayable",
      "type": "function"
    },
    {
      "inputs": [
        {
          "internalType": "address",
          "name": "from",
          "type": "address"
        },
        {
          "internalType": "address",
          "name": "to",
          "type": "address"
        },
        {
          "internalType": "uint256",
          "name": "id",
          "type": "uint256"
        },
        {
          "internalType": "uint256",
          "name": "amount",
          "type": "uint256"
        },
        {
          "internalType": "bytes",
          "name": "data",
          "type": "bytes"
        }
      ],
      "name": "safeTransferFrom",
      "outputs": [],
      "stateMutability": "nonpayable",
      "type": "function"
    },
    {
      "inputs": [
        {
          "internalType": "address",
          "name": "operator",
          "type": "address"
        },
        {
          "internalType": "bool",
          "name": "approved",
          "type": "bool"
        }
      ],
      "name": "setApprovalForAll",
      "outputs": [],
      "stateMutability": "nonpayable",
      "type": "function"
    },
    {
      "inputs": [
        {
          "internalType": "bytes4",
          "name": "interfaceId",
          "type": "bytes4"
        }
      ],
      "name": "supportsInterface",
      "outputs": [
        {
          "internalType": "bool",
          "name": "",
          "type": "bool"
        }
      ],
      "stateMutability": "view",
      "type": "function"
    },
    {
      "inputs": [
        {
          "internalType": "address",
          "name": "newOwner",
          "type": "address"
        }
      ],
      "name": "transferOwnership",
      "outputs": [],
      "stateMutability": "nonpayable",
      "type": "function"
    },
    {
      "inputs": [
        {
          "internalType": "uint256",
          "name": "tokenId",
          "type": "uint256"
        }
      ],
      "name": "uri",
      "outputs": [
        {
          "internalType": "string",
          "name": "",
          "type": "string"
        }
      ],
      "stateMutability": "view",
      "type": "function"
    }
  ],
  "bytecode": "0x60806040523480156200001157600080fd5b50604051620026643803806200266483398101604081905262000034916200017a565b80620000408162000069565b506200004c3362000082565b805162000061906005906020840190620000d4565b5050620002a3565b80516200007e906002906020840190620000d4565b5050565b600380546001600160a01b038381166001600160a01b0319831681179093556040519116919082907f8be0079c531659141344cd1fd0a4f28419497f9722a3daafe3b4186f6b6457e090600090a35050565b828054620000e29062000250565b90600052602060002090601f01602090048101928262000106576000855562000151565b82601f106200012157805160ff191683800117855562000151565b8280016001018555821562000151579182015b828111156200015157825182559160200191906001019062000134565b506200015f92915062000163565b5090565b5b808211156200015f576000815560010162000164565b600060208083850312156200018d578182fd5b82516001600160401b0380821115620001a4578384fd5b818501915085601f830112620001b8578384fd5b815181811115620001cd57620001cd6200028d565b604051601f8201601f19908116603f01168101908382118183101715620001f857620001f86200028d565b81604052828152888684870101111562000210578687fd5b8693505b8284101562000233578484018601518185018701529285019262000214565b828411156200024457868684830101525b98975050505050505050565b600181811c908216806200026557607f821691505b602082108114156200028757634e487b7160e01b600052602260045260246000fd5b50919050565b634e487b7160e01b600052604160045260246000fd5b6123b180620002b36000396000f3fe6080604052600436106101085760003560e01c80639abc832011610095578063e985e9c511610064578063e985e9c514610305578063efef39a11461034e578063f23a6e6114610361578063f242432a1461038d578063f2fde38b146103ad57600080fd5b80639abc832014610269578063a22cb4651461027e578063aa6ca8081461029e578063bc197c81146102c057600080fd5b80632ed2a5c0116100dc5780632ed2a5c0146101bf5780634d82d477146101df5780634e1273f4146101ff578063715018a61461022c5780638da5cb5b1461024157600080fd5b8062fdd58e1461010d57806301ffc9a7146101405780630e89341c146101705780632eb2c2d61461019d575b600080fd5b34801561011957600080fd5b5061012d610128366004611c16565b6103cd565b6040519081526020015b60405180910390f35b34801561014c57600080fd5b5061016061015b366004611d00565b610464565b6040519015158152602001610137565b34801561017c57600080fd5b5061019061018b366004611dac565b610475565b6040516101379190612089565b3480156101a957600080fd5b506101bd6101b8366004611a87565b61060a565b005b3480156101cb57600080fd5b506101bd6101da366004611d38565b6106a1565b3480156101eb57600080fd5b506101606101fa366004611bca565b61093b565b34801561020b57600080fd5b5061021f61021a366004611c3f565b610974565b6040516101379190612051565b34801561023857600080fd5b506101bd610ad6565b34801561024d57600080fd5b506003546040516001600160a01b039091168152602001610137565b34801561027557600080fd5b50610190610b0c565b34801561028a57600080fd5b506101bd610299366004611b90565b610b9a565b3480156102aa57600080fd5b506102b3610ba9565b6040516101379190611fab565b3480156102cc57600080fd5b506102ec6102db366004611a87565b63bc197c8160e01b95945050505050565b6040516001600160e01b03199091168152602001610137565b34801561031157600080fd5b50610160610320366004611a55565b6001600160a01b03918216600090815260016020908152604080832093909416825291909152205460ff1690565b6101bd61035c366004611dac565b610d4a565b34801561036d57600080fd5b506102ec61037c366004611b2d565b63f23a6e6160e01b95945050505050565b34801561039957600080fd5b506101bd6103a8366004611b2d565b610f2c565b3480156103b957600080fd5b506101bd6103c8366004611a34565b610fb3565b60006001600160a01b03831661043e5760405162461bcd60e51b815260206004820152602b60248201527f455243313135353a2062616c616e636520717565727920666f7220746865207a60448201526a65726f206164647265737360a81b60648201526084015b60405180910390fd5b506000908152602081815260408083206001600160a01b03949094168352929052205490565b600061046f8261104e565b92915050565b60606000600860008481526020019081526020016000206040518060a00160405290816000820154815260200160018201548152602001600282015481526020016003820180546104c590612214565b80601f01602080910402602001604051908101604052809291908181526020018280546104f190612214565b801561053e5780601f106105135761010080835404028352916020019161053e565b820191906000526020600020905b81548152906001019060200180831161052157829003601f168201915b5050505050815260200160048201805461055790612214565b80601f016020809104026020016040519081016040528092919081815260200182805461058390612214565b80156105d05780601f106105a5576101008083540402835291602001916105d0565b820191906000526020600020905b8154815290600101906020018083116105b357829003601f168201915b5050505050815250509050600581608001516040516020016105f3929190611e62565b604051602081830303815290604052915050919050565b6001600160a01b03851633148061062657506106268533610320565b61068d5760405162461bcd60e51b815260206004820152603260248201527f455243313135353a207472616e736665722063616c6c6572206973206e6f74206044820152711bdddb995c881b9bdc88185c1c1c9bdd995960721b6064820152608401610435565b61069a8585858585611073565b5050505050565b6003546001600160a01b031633146106cb5760405162461bcd60e51b815260040161043590612173565b6007846040516106db9190611e46565b90815260200160405180910390205460001461072e5760405162461bcd60e51b815260206004820152601260248201527129b63ab39030b63932b0b23c903a30b5b2b760711b6044820152606401610435565b61073c600480546001019055565b600061074760045490565b905060006040518060a00160405280838152602001868152602001858152602001878152602001848152509050816007876040516107859190611e46565b9081526040805160209281900383019020929092556006805460018101825560009190915283517ff652222313e28459528d920b65115c16c04f3efc82aaedc97be59f3f377c0d3f6005909202918201908155848301517ff652222313e28459528d920b65115c16c04f3efc82aaedc97be59f3f377c0d40830155928401517ff652222313e28459528d920b65115c16c04f3efc82aaedc97be59f3f377c0d4182015560608401518051859493610860937ff652222313e28459528d920b65115c16c04f3efc82aaedc97be59f3f377c0d420192019061189c565b506080820151805161087c91600484019160209091019061189c565b50505060008281526008602090815260409182902083518155818401516001820155918301516002830155606083015180518493926108c292600385019291019061189c565b50608082015180516108de91600484019160209091019061189c565b5090505061090a338387604051806040016040528060048152602001630307830360e41b815250611264565b61093333308488604051806040016040528060048152602001630307830360e41b81525061136e565b505050505050565b60008060078360405161094e9190611e46565b9081526020016040518091039020549050600061096b85836103cd565b11949350505050565b606081518351146109d95760405162461bcd60e51b815260206004820152602960248201527f455243313135353a206163636f756e747320616e6420696473206c656e677468604482015268040dad2e6dac2e8c6d60bb1b6064820152608401610435565b6000835167ffffffffffffffff811115610a0357634e487b7160e01b600052604160045260246000fd5b604051908082528060200260200182016040528015610a2c578160200160208202803683370190505b50905060005b8451811015610ace57610a93858281518110610a5e57634e487b7160e01b600052603260045260246000fd5b6020026020010151858381518110610a8657634e487b7160e01b600052603260045260246000fd5b60200260200101516103cd565b828281518110610ab357634e487b7160e01b600052603260045260246000fd5b6020908102919091010152610ac78161227c565b9050610a32565b509392505050565b6003546001600160a01b03163314610b005760405162461bcd60e51b815260040161043590612173565b610b0a600061148b565b565b60058054610b1990612214565b80601f0160208091040260200160405190810160405280929190818152602001828054610b4590612214565b8015610b925780601f10610b6757610100808354040283529160200191610b92565b820191906000526020600020905b815481529060010190602001808311610b7557829003601f168201915b505050505081565b610ba53383836114dd565b5050565b60606006805480602002602001604051908101604052809291908181526020016000905b82821015610d4157838290600052602060002090600502016040518060a0016040529081600082015481526020016001820154815260200160028201548152602001600382018054610c1e90612214565b80601f0160208091040260200160405190810160405280929190818152602001828054610c4a90612214565b8015610c975780601f10610c6c57610100808354040283529160200191610c97565b820191906000526020600020905b815481529060010190602001808311610c7a57829003601f168201915b50505050508152602001600482018054610cb090612214565b80601f0160208091040260200160405190810160405280929190818152602001828054610cdc90612214565b8015610d295780601f10610cfe57610100808354040283529160200191610d29565b820191906000526020600020905b815481529060010190602001808311610d0c57829003601f168201915b50505050508152505081526020019060010190610bcd565b50505050905090565b6000600860008381526020019081526020016000206040518060a0016040529081600082015481526020016001820154815260200160028201548152602001600382018054610d9890612214565b80601f0160208091040260200160405190810160405280929190818152602001828054610dc490612214565b8015610e115780601f10610de657610100808354040283529160200191610e11565b820191906000526020600020905b815481529060010190602001808311610df457829003601f168201915b50505050508152602001600482018054610e2a90612214565b80601f0160208091040260200160405190810160405280929190818152602001828054610e5690612214565b8015610ea35780601f10610e7857610100808354040283529160200191610ea3565b820191906000526020600020905b815481529060010190602001808311610e8657829003601f168201915b50505050508152505090508060400151341015610f025760405162461bcd60e51b815260206004820152601e60248201527f4e6f7420656e6f7567682045544820666f72207472616e73616374696f6e00006044820152606401610435565b610ba53033846001604051806040016040528060048152602001630307830360e41b81525061136e565b6001600160a01b038516331480610f485750610f488533610320565b610fa65760405162461bcd60e51b815260206004820152602960248201527f455243313135353a2063616c6c6572206973206e6f74206f776e6572206e6f7260448201526808185c1c1c9bdd995960ba1b6064820152608401610435565b61069a858585858561136e565b6003546001600160a01b03163314610fdd5760405162461bcd60e51b815260040161043590612173565b6001600160a01b0381166110425760405162461bcd60e51b815260206004820152602660248201527f4f776e61626c653a206e6577206f776e657220697320746865207a65726f206160448201526564647265737360d01b6064820152608401610435565b61104b8161148b565b50565b60006001600160e01b03198216630271189760e51b148061046f575061046f826115be565b81518351146110d55760405162461bcd60e51b815260206004820152602860248201527f455243313135353a2069647320616e6420616d6f756e7473206c656e677468206044820152670dad2e6dac2e8c6d60c31b6064820152608401610435565b6001600160a01b0384166110fb5760405162461bcd60e51b8152600401610435906120e4565b3360005b84518110156111fe57600085828151811061112a57634e487b7160e01b600052603260045260246000fd5b60200260200101519050600085838151811061115657634e487b7160e01b600052603260045260246000fd5b602090810291909101810151600084815280835260408082206001600160a01b038e1683529093529190912054909150818110156111a65760405162461bcd60e51b815260040161043590612129565b6000838152602081815260408083206001600160a01b038e8116855292528083208585039055908b168252812080548492906111e39084906121cc565b92505081905550505050806111f79061227c565b90506110ff565b50846001600160a01b0316866001600160a01b0316826001600160a01b03167f4a39dc06d4c0dbc64b70af90fd698a233a518aa5d07e595d983b8c0526c8f7fb878760405161124e929190612064565b60405180910390a461093381878787878761160e565b6001600160a01b0384166112c45760405162461bcd60e51b815260206004820152602160248201527f455243313135353a206d696e7420746f20746865207a65726f206164647265736044820152607360f81b6064820152608401610435565b336112de816000876112d588611779565b61069a88611779565b6000848152602081815260408083206001600160a01b03891684529091528120805485929061130e9084906121cc565b909155505060408051858152602081018590526001600160a01b0380881692600092918516917fc3d58168c5ae7397731d063d5bbf3d657854427343f4c083240f7aacaa2d0f62910160405180910390a461069a816000878787876117d2565b6001600160a01b0384166113945760405162461bcd60e51b8152600401610435906120e4565b336113a48187876112d588611779565b6000848152602081815260408083206001600160a01b038a168452909152902054838110156113e55760405162461bcd60e51b815260040161043590612129565b6000858152602081815260408083206001600160a01b038b81168552925280832087850390559088168252812080548692906114229084906121cc565b909155505060408051868152602081018690526001600160a01b03808916928a821692918616917fc3d58168c5ae7397731d063d5bbf3d657854427343f4c083240f7aacaa2d0f62910160405180910390a46114828288888888886117d2565b50505050505050565b600380546001600160a01b038381166001600160a01b0319831681179093556040519116919082907f8be0079c531659141344cd1fd0a4f28419497f9722a3daafe3b4186f6b6457e090600090a35050565b816001600160a01b0316836001600160a01b031614156115515760405162461bcd60e51b815260206004820152602960248201527f455243313135353a2073657474696e6720617070726f76616c20737461747573604482015268103337b91039b2b63360b91b6064820152608401610435565b6001600160a01b03838116600081815260016020908152604080832094871680845294825291829020805460ff191686151590811790915591519182527f17307eab39ab6107e8899845ad3d59bd9653f200f220920489ca2b5937696c31910160405180910390a3505050565b60006001600160e01b03198216636cdb3d1360e11b14806115ef57506001600160e01b031982166303a24d0760e21b145b8061046f57506301ffc9a760e01b6001600160e01b031983161461046f565b6001600160a01b0384163b156109335760405163bc197c8160e01b81526001600160a01b0385169063bc197c81906116529089908990889088908890600401611f08565b602060405180830381600087803b15801561166c57600080fd5b505af192505050801561169c575060408051601f3d908101601f1916820190925261169991810190611d1c565b60015b611749576116a86122c3565b806308c379a014156116e257506116bd6122db565b806116c857506116e4565b8060405162461bcd60e51b81526004016104359190612089565b505b60405162461bcd60e51b815260206004820152603460248201527f455243313135353a207472616e7366657220746f206e6f6e20455243313135356044820152732932b1b2b4bb32b91034b6b83632b6b2b73a32b960611b6064820152608401610435565b6001600160e01b0319811663bc197c8160e01b146114825760405162461bcd60e51b81526004016104359061209c565b604080516001808252818301909252606091600091906020808301908036833701905050905082816000815181106117c157634e487b7160e01b600052603260045260246000fd5b602090810291909101015292915050565b6001600160a01b0384163b156109335760405163f23a6e6160e01b81526001600160a01b0385169063f23a6e61906118169089908990889088908890600401611f66565b602060405180830381600087803b15801561183057600080fd5b505af1925050508015611860575060408051601f3d908101601f1916820190925261185d91810190611d1c565b60015b61186c576116a86122c3565b6001600160e01b0319811663f23a6e6160e01b146114825760405162461bcd60e51b81526004016104359061209c565b8280546118a890612214565b90600052602060002090601f0160209004810192826118ca5760008555611910565b82601f106118e357805160ff1916838001178555611910565b82800160010185558215611910579182015b828111156119105782518255916020019190600101906118f5565b5061191c929150611920565b5090565b5b8082111561191c5760008155600101611921565b80356001600160a01b038116811461194c57600080fd5b919050565b600082601f830112611961578081fd5b8135602061196e826121a8565b60405161197b828261224f565b8381528281019150858301600585901b8701840188101561199a578586fd5b855b858110156119b85781358452928401929084019060010161199c565b5090979650505050505050565b600082601f8301126119d5578081fd5b813567ffffffffffffffff8111156119ef576119ef6122ad565b604051611a06601f8301601f19166020018261224f565b818152846020838601011115611a1a578283fd5b816020850160208301379081016020019190915292915050565b600060208284031215611a45578081fd5b611a4e82611935565b9392505050565b60008060408385031215611a67578081fd5b611a7083611935565b9150611a7e60208401611935565b90509250929050565b600080600080600060a08688031215611a9e578081fd5b611aa786611935565b9450611ab560208701611935565b9350604086013567ffffffffffffffff80821115611ad1578283fd5b611add89838a01611951565b94506060880135915080821115611af2578283fd5b611afe89838a01611951565b93506080880135915080821115611b13578283fd5b50611b20888289016119c5565b9150509295509295909350565b600080600080600060a08688031215611b44578081fd5b611b4d86611935565b9450611b5b60208701611935565b93506040860135925060608601359150608086013567ffffffffffffffff811115611b84578182fd5b611b20888289016119c5565b60008060408385031215611ba2578182fd5b611bab83611935565b915060208301358015158114611bbf578182fd5b809150509250929050565b60008060408385031215611bdc578182fd5b611be583611935565b9150602083013567ffffffffffffffff811115611c00578182fd5b611c0c858286016119c5565b9150509250929050565b60008060408385031215611c28578182fd5b611c3183611935565b946020939093013593505050565b60008060408385031215611c51578182fd5b823567ffffffffffffffff80821115611c68578384fd5b818501915085601f830112611c7b578384fd5b81356020611c88826121a8565b604051611c95828261224f565b8381528281019150858301600585901b870184018b1015611cb4578889fd5b8896505b84871015611cdd57611cc981611935565b835260019690960195918301918301611cb8565b5096505086013592505080821115611cf3578283fd5b50611c0c85828601611951565b600060208284031215611d11578081fd5b8135611a4e81612365565b600060208284031215611d2d578081fd5b8151611a4e81612365565b60008060008060808587031215611d4d578182fd5b843567ffffffffffffffff80821115611d64578384fd5b611d70888389016119c5565b955060208701359450604087013593506060870135915080821115611d93578283fd5b50611da0878288016119c5565b91505092959194509250565b600060208284031215611dbd578081fd5b5035919050565b6000815180845260208085019450808401835b83811015611df357815187529582019590820190600101611dd7565b509495945050505050565b60008151808452611e168160208601602086016121e4565b601f01601f19169290920160200192915050565b60008151611e3c8185602086016121e4565b9290920192915050565b60008251611e588184602087016121e4565b9190910192915050565b600080845482600182811c915080831680611e7e57607f831692505b6020808410821415611e9e57634e487b7160e01b87526022600452602487fd5b818015611eb25760018114611ec357611eef565b60ff19861689528489019650611eef565b60008b815260209020885b86811015611ee75781548b820152908501908301611ece565b505084890196505b505050505050611eff8185611e2a565b95945050505050565b6001600160a01b0386811682528516602082015260a060408201819052600090611f3490830186611dc4565b8281036060840152611f468186611dc4565b90508281036080840152611f5a8185611dfe565b98975050505050505050565b6001600160a01b03868116825285166020820152604081018490526060810183905260a060808201819052600090611fa090830184611dfe565b979650505050505050565b60006020808301818452808551808352604092508286019150828160051b870101848801865b8381101561204357603f19898403018552815160a08151855288820151898601528782015188860152606080830151828288015261201183880182611dfe565b925050506080808301519250858203818701525061202f8183611dfe565b968901969450505090860190600101611fd1565b509098975050505050505050565b602081526000611a4e6020830184611dc4565b6040815260006120776040830185611dc4565b8281036020840152611eff8185611dc4565b602081526000611a4e6020830184611dfe565b60208082526028908201527f455243313135353a204552433131353552656365697665722072656a656374656040820152676420746f6b656e7360c01b606082015260800190565b60208082526025908201527f455243313135353a207472616e7366657220746f20746865207a65726f206164604082015264647265737360d81b606082015260800190565b6020808252602a908201527f455243313135353a20696e73756666696369656e742062616c616e636520666f60408201526939103a3930b739b332b960b11b606082015260800190565b6020808252818101527f4f776e61626c653a2063616c6c6572206973206e6f7420746865206f776e6572604082015260600190565b600067ffffffffffffffff8211156121c2576121c26122ad565b5060051b60200190565b600082198211156121df576121df612297565b500190565b60005b838110156121ff5781810151838201526020016121e7565b8381111561220e576000848401525b50505050565b600181811c9082168061222857607f821691505b6020821081141561224957634e487b7160e01b600052602260045260246000fd5b50919050565b601f8201601f1916810167ffffffffffffffff81118282101715612275576122756122ad565b6040525050565b600060001982141561229057612290612297565b5060010190565b634e487b7160e01b600052601160045260246000fd5b634e487b7160e01b600052604160045260246000fd5b600060033d11156122d857600481823e5160e01c5b90565b600060443d10156122e95790565b6040516003193d81016004833e81513d67ffffffffffffffff816024840111818411171561231957505050505090565b82850191508151818111156123315750505050505090565b843d870101602082850101111561234b5750505050505090565b61235a6020828601018761224f565b509095945050505050565b6001600160e01b03198116811461104b57600080fdfea26469706673582212208748c7284ac7f997e4b87754ff69cd44159f5f1ff47dedbd03a4f371369a756d64736f6c63430008040033",
  "linkReferences": {},
  "deployedLinkReferences": {}
}