{
  "_format": "hh-sol-artifact-1",
  "contractName": "AccessToken",
  "sourceName": "contracts/AccessToken.sol",
  "abi": [
    {
      "inputs": [
        {
          "internalType": "string",
          "name": "_baseUri",
          "type": "string"
        }
      ],
      "stateMutability": "nonpayable",
      "type": "constructor"
    },
    {
      "anonymous": false,
      "inputs": [
        {
          "indexed": true,
          "internalType": "address",
          "name": "account",
          "type": "address"
        },
        {
          "indexed": true,
          "internalType": "address",
          "name": "operator",
          "type": "address"
        },
        {
          "indexed": false,
          "internalType": "bool",
          "name": "approved",
          "type": "bool"
        }
      ],
      "name": "ApprovalForAll",
      "type": "event"
    },
    {
      "anonymous": false,
      "inputs": [
        {
          "indexed": true,
          "internalType": "address",
          "name": "previousOwner",
          "type": "address"
        },
        {
          "indexed": true,
          "internalType": "address",
          "name": "newOwner",
          "type": "address"
        }
      ],
      "name": "OwnershipTransferred",
      "type": "event"
    },
    {
      "anonymous": false,
      "inputs": [
        {
          "indexed": true,
          "internalType": "address",
          "name": "operator",
          "type": "address"
        },
        {
          "indexed": true,
          "internalType": "address",
          "name": "from",
          "type": "address"
        },
        {
          "indexed": true,
          "internalType": "address",
          "name": "to",
          "type": "address"
        },
        {
          "indexed": false,
          "internalType": "uint256[]",
          "name": "ids",
          "type": "uint256[]"
        },
        {
          "indexed": false,
          "internalType": "uint256[]",
          "name": "values",
          "type": "uint256[]"
        }
      ],
      "name": "TransferBatch",
      "type": "event"
    },
    {
      "anonymous": false,
      "inputs": [
        {
          "indexed": true,
          "internalType": "address",
          "name": "operator",
          "type": "address"
        },
        {
          "indexed": true,
          "internalType": "address",
          "name": "from",
          "type": "address"
        },
        {
          "indexed": true,
          "internalType": "address",
          "name": "to",
          "type": "address"
        },
        {
          "indexed": false,
          "internalType": "uint256",
          "name": "id",
          "type": "uint256"
        },
        {
          "indexed": false,
          "internalType": "uint256",
          "name": "value",
          "type": "uint256"
        }
      ],
      "name": "TransferSingle",
      "type": "event"
    },
    {
      "anonymous": false,
      "inputs": [
        {
          "indexed": false,
          "internalType": "string",
          "name": "value",
          "type": "string"
        },
        {
          "indexed": true,
          "internalType": "uint256",
          "name": "id",
          "type": "uint256"
        }
      ],
      "name": "URI",
      "type": "event"
    },
    {
      "inputs": [
        {
          "internalType": "address",
          "name": "account",
          "type": "address"
        },
        {
          "internalType": "string",
          "name": "slug",
          "type": "string"
        }
      ],
      "name": "authenticate",
      "outputs": [
        {
          "internalType": "bool",
          "name": "",
          "type": "bool"
        }
      ],
      "stateMutability": "view",
      "type": "function"
    },
    {
      "inputs": [
        {
          "internalType": "address",
          "name": "account",
          "type": "address"
        },
        {
          "internalType": "uint256",
          "name": "id",
          "type": "uint256"
        }
      ],
      "name": "balanceOf",
      "outputs": [
        {
          "internalType": "uint256",
          "name": "",
          "type": "uint256"
        }
      ],
      "stateMutability": "view",
      "type": "function"
    },
    {
      "inputs": [
        {
          "internalType": "address[]",
          "name": "accounts",
          "type": "address[]"
        },
        {
          "internalType": "uint256[]",
          "name": "ids",
          "type": "uint256[]"
        }
      ],
      "name": "balanceOfBatch",
      "outputs": [
        {
          "internalType": "uint256[]",
          "name": "",
          "type": "uint256[]"
        }
      ],
      "stateMutability": "view",
      "type": "function"
    },
    {
      "inputs": [],
      "name": "baseUri",
      "outputs": [
        {
          "internalType": "string",
          "name": "",
          "type": "string"
        }
      ],
      "stateMutability": "view",
      "type": "function"
    },
    {
      "inputs": [],
      "name": "getPurchasedTokens",
      "outputs": [
        {
          "components": [
            {
              "internalType": "uint256",
              "name": "tokenId",
              "type": "uint256"
            },
            {
              "internalType": "uint256",
              "name": "amount",
              "type": "uint256"
            },
            {
              "internalType": "uint256",
              "name": "price",
              "type": "uint256"
            },
            {
              "internalType": "string",
              "name": "slug",
              "type": "string"
            },
            {
              "internalType": "string",
              "name": "ipfsHash",
              "type": "string"
            }
          ],
          "internalType": "struct AccessToken.Token[]",
          "name": "",
          "type": "tuple[]"
        }
      ],
      "stateMutability": "view",
      "type": "function"
    },
    {
      "inputs": [],
      "name": "getTokens",
      "outputs": [
        {
          "components": [
            {
              "internalType": "uint256",
              "name": "tokenId",
              "type": "uint256"
            },
            {
              "internalType": "uint256",
              "name": "amount",
              "type": "uint256"
            },
            {
              "internalType": "uint256",
              "name": "price",
              "type": "uint256"
            },
            {
              "internalType": "string",
              "name": "slug",
              "type": "string"
            },
            {
              "internalType": "string",
              "name": "ipfsHash",
              "type": "string"
            }
          ],
          "internalType": "struct AccessToken.Token[]",
          "name": "",
          "type": "tuple[]"
        }
      ],
      "stateMutability": "view",
      "type": "function"
    },
    {
      "inputs": [
        {
          "internalType": "address",
          "name": "account",
          "type": "address"
        },
        {
          "internalType": "address",
          "name": "operator",
          "type": "address"
        }
      ],
      "name": "isApprovedForAll",
      "outputs": [
        {
          "internalType": "bool",
          "name": "",
          "type": "bool"
        }
      ],
      "stateMutability": "view",
      "type": "function"
    },
    {
      "inputs": [
        {
          "internalType": "string",
          "name": "slug",
          "type": "string"
        },
        {
          "internalType": "uint256",
          "name": "amount",
          "type": "uint256"
        },
        {
          "internalType": "uint256",
          "name": "price",
          "type": "uint256"
        },
        {
          "internalType": "string",
          "name": "ipfsHash",
          "type": "string"
        }
      ],
      "name": "mint",
      "outputs": [],
      "stateMutability": "nonpayable",
      "type": "function"
    },
    {
      "inputs": [
        {
          "internalType": "address",
          "name": "",
          "type": "address"
        },
        {
          "internalType": "address",
          "name": "",
          "type": "address"
        },
        {
          "internalType": "uint256[]",
          "name": "",
          "type": "uint256[]"
        },
        {
          "internalType": "uint256[]",
          "name": "",
          "type": "uint256[]"
        },
        {
          "internalType": "bytes",
          "name": "",
          "type": "bytes"
        }
      ],
      "name": "onERC1155BatchReceived",
      "outputs": [
        {
          "internalType": "bytes4",
          "name": "",
          "type": "bytes4"
        }
      ],
      "stateMutability": "nonpayable",
      "type": "function"
    },
    {
      "inputs": [
        {
          "internalType": "address",
          "name": "",
          "type": "address"
        },
        {
          "internalType": "address",
          "name": "",
          "type": "address"
        },
        {
          "internalType": "uint256",
          "name": "",
          "type": "uint256"
        },
        {
          "internalType": "uint256",
          "name": "",
          "type": "uint256"
        },
        {
          "internalType": "bytes",
          "name": "",
          "type": "bytes"
        }
      ],
      "name": "onERC1155Received",
      "outputs": [
        {
          "internalType": "bytes4",
          "name": "",
          "type": "bytes4"
        }
      ],
      "stateMutability": "nonpayable",
      "type": "function"
    },
    {
      "inputs": [],
      "name": "owner",
      "outputs": [
        {
          "internalType": "address",
          "name": "",
          "type": "address"
        }
      ],
      "stateMutability": "view",
      "type": "function"
    },
    {
      "inputs": [
        {
          "internalType": "uint256",
          "name": "tokenId",
          "type": "uint256"
        }
      ],
      "name": "purchase",
      "outputs": [],
      "stateMutability": "payable",
      "type": "function"
    },
    {
      "inputs": [],
      "name": "renounceOwnership",
      "outputs": [],
      "stateMutability": "nonpayable",
      "type": "function"
    },
    {
      "inputs": [
        {
          "internalType": "address",
          "name": "from",
          "type": "address"
        },
        {
          "internalType": "address",
          "name": "to",
          "type": "address"
        },
        {
          "internalType": "uint256[]",
          "name": "ids",
          "type": "uint256[]"
        },
        {
          "internalType": "uint256[]",
          "name": "amounts",
          "type": "uint256[]"
        },
        {
          "internalType": "bytes",
          "name": "data",
          "type": "bytes"
        }
      ],
      "name": "safeBatchTransferFrom",
      "outputs": [],
      "stateMutability": "nonpayable",
      "type": "function"
    },
    {
      "inputs": [
        {
          "internalType": "address",
          "name": "from",
          "type": "address"
        },
        {
          "internalType": "address",
          "name": "to",
          "type": "address"
        },
        {
          "internalType": "uint256",
          "name": "id",
          "type": "uint256"
        },
        {
          "internalType": "uint256",
          "name": "amount",
          "type": "uint256"
        },
        {
          "internalType": "bytes",
          "name": "data",
          "type": "bytes"
        }
      ],
      "name": "safeTransferFrom",
      "outputs": [],
      "stateMutability": "nonpayable",
      "type": "function"
    },
    {
      "inputs": [
        {
          "internalType": "address",
          "name": "operator",
          "type": "address"
        },
        {
          "internalType": "bool",
          "name": "approved",
          "type": "bool"
        }
      ],
      "name": "setApprovalForAll",
      "outputs": [],
      "stateMutability": "nonpayable",
      "type": "function"
    },
    {
      "inputs": [
        {
          "internalType": "bytes4",
          "name": "interfaceId",
          "type": "bytes4"
        }
      ],
      "name": "supportsInterface",
      "outputs": [
        {
          "internalType": "bool",
          "name": "",
          "type": "bool"
        }
      ],
      "stateMutability": "view",
      "type": "function"
    },
    {
      "inputs": [
        {
          "internalType": "address",
          "name": "newOwner",
          "type": "address"
        }
      ],
      "name": "transferOwnership",
      "outputs": [],
      "stateMutability": "nonpayable",
      "type": "function"
    },
    {
      "inputs": [
        {
          "internalType": "uint256",
          "name": "tokenId",
          "type": "uint256"
        }
      ],
      "name": "uri",
      "outputs": [
        {
          "internalType": "string",
          "name": "",
          "type": "string"
        }
      ],
      "stateMutability": "view",
      "type": "function"
    }
  ],
  "bytecode": "0x60806040523480156200001157600080fd5b50604051620029333803806200293383398101604081905262000034916200017a565b80620000408162000069565b506200004c3362000082565b805162000061906005906020840190620000d4565b5050620002a3565b80516200007e906002906020840190620000d4565b5050565b600380546001600160a01b038381166001600160a01b0319831681179093556040519116919082907f8be0079c531659141344cd1fd0a4f28419497f9722a3daafe3b4186f6b6457e090600090a35050565b828054620000e29062000250565b90600052602060002090601f01602090048101928262000106576000855562000151565b82601f106200012157805160ff191683800117855562000151565b8280016001018555821562000151579182015b828111156200015157825182559160200191906001019062000134565b506200015f92915062000163565b5090565b5b808211156200015f576000815560010162000164565b600060208083850312156200018d578182fd5b82516001600160401b0380821115620001a4578384fd5b818501915085601f830112620001b8578384fd5b815181811115620001cd57620001cd6200028d565b604051601f8201601f19908116603f01168101908382118183101715620001f857620001f86200028d565b81604052828152888684870101111562000210578687fd5b8693505b8284101562000233578484018601518185018701529285019262000214565b828411156200024457868684830101525b98975050505050505050565b600181811c908216806200026557607f821691505b602082108114156200028757634e487b7160e01b600052602260045260246000fd5b50919050565b634e487b7160e01b600052604160045260246000fd5b61268080620002b36000396000f3fe6080604052600436106101135760003560e01c80638da5cb5b116100a0578063e985e9c511610064578063e985e9c514610325578063efef39a11461036e578063f23a6e6114610381578063f242432a146103ad578063f2fde38b146103cd57600080fd5b80638da5cb5b1461026e5780639abc832014610296578063a22cb465146102ab578063aa6ca808146102cb578063bc197c81146102e057600080fd5b80632ed2a5c0116100e75780632ed2a5c0146101ca5780634d82d477146101ea5780634e1273f41461020a578063648e300614610237578063715018a61461025957600080fd5b8062fdd58e1461011857806301ffc9a71461014b5780630e89341c1461017b5780632eb2c2d6146101a8575b600080fd5b34801561012457600080fd5b50610138610133366004611ee5565b6103ed565b6040519081526020015b60405180910390f35b34801561015757600080fd5b5061016b610166366004611fcf565b610484565b6040519015158152602001610142565b34801561018757600080fd5b5061019b61019636600461207b565b610495565b6040516101429190612358565b3480156101b457600080fd5b506101c86101c3366004611d56565b61062a565b005b3480156101d657600080fd5b506101c86101e5366004612007565b6106c1565b3480156101f657600080fd5b5061016b610205366004611e99565b61095b565b34801561021657600080fd5b5061022a610225366004611f0e565b610994565b6040516101429190612320565b34801561024357600080fd5b5061024c610af6565b604051610142919061227a565b34801561026557600080fd5b506101c8610da5565b34801561027a57600080fd5b506003546040516001600160a01b039091168152602001610142565b3480156102a257600080fd5b5061019b610ddb565b3480156102b757600080fd5b506101c86102c6366004611e5f565b610e69565b3480156102d757600080fd5b5061024c610e78565b3480156102ec57600080fd5b5061030c6102fb366004611d56565b63bc197c8160e01b95945050505050565b6040516001600160e01b03199091168152602001610142565b34801561033157600080fd5b5061016b610340366004611d24565b6001600160a01b03918216600090815260016020908152604080832093909416825291909152205460ff1690565b6101c861037c36600461207b565b611019565b34801561038d57600080fd5b5061030c61039c366004611dfc565b63f23a6e6160e01b95945050505050565b3480156103b957600080fd5b506101c86103c8366004611dfc565b6111fb565b3480156103d957600080fd5b506101c86103e8366004611d03565b611282565b60006001600160a01b03831661045e5760405162461bcd60e51b815260206004820152602b60248201527f455243313135353a2062616c616e636520717565727920666f7220746865207a60448201526a65726f206164647265737360a81b60648201526084015b60405180910390fd5b506000908152602081815260408083206001600160a01b03949094168352929052205490565b600061048f8261131d565b92915050565b60606000600860008481526020019081526020016000206040518060a00160405290816000820154815260200160018201548152602001600282015481526020016003820180546104e5906124e3565b80601f0160208091040260200160405190810160405280929190818152602001828054610511906124e3565b801561055e5780601f106105335761010080835404028352916020019161055e565b820191906000526020600020905b81548152906001019060200180831161054157829003601f168201915b50505050508152602001600482018054610577906124e3565b80601f01602080910402602001604051908101604052809291908181526020018280546105a3906124e3565b80156105f05780601f106105c5576101008083540402835291602001916105f0565b820191906000526020600020905b8154815290600101906020018083116105d357829003601f168201915b505050505081525050905060058160800151604051602001610613929190612131565b604051602081830303815290604052915050919050565b6001600160a01b03851633148061064657506106468533610340565b6106ad5760405162461bcd60e51b815260206004820152603260248201527f455243313135353a207472616e736665722063616c6c6572206973206e6f74206044820152711bdddb995c881b9bdc88185c1c1c9bdd995960721b6064820152608401610455565b6106ba8585858585611342565b5050505050565b6003546001600160a01b031633146106eb5760405162461bcd60e51b815260040161045590612442565b6007846040516106fb9190612115565b90815260200160405180910390205460001461074e5760405162461bcd60e51b815260206004820152601260248201527129b63ab39030b63932b0b23c903a30b5b2b760711b6044820152606401610455565b61075c600480546001019055565b600061076760045490565b905060006040518060a00160405280838152602001868152602001858152602001878152602001848152509050816007876040516107a59190612115565b9081526040805160209281900383019020929092556006805460018101825560009190915283517ff652222313e28459528d920b65115c16c04f3efc82aaedc97be59f3f377c0d3f6005909202918201908155848301517ff652222313e28459528d920b65115c16c04f3efc82aaedc97be59f3f377c0d40830155928401517ff652222313e28459528d920b65115c16c04f3efc82aaedc97be59f3f377c0d4182015560608401518051859493610880937ff652222313e28459528d920b65115c16c04f3efc82aaedc97be59f3f377c0d4201920190611b6b565b506080820151805161089c916004840191602090910190611b6b565b50505060008281526008602090815260409182902083518155818401516001820155918301516002830155606083015180518493926108e2926003850192910190611b6b565b50608082015180516108fe916004840191602090910190611b6b565b5090505061092a338387604051806040016040528060048152602001630307830360e41b815250611533565b61095333308488604051806040016040528060048152602001630307830360e41b81525061163d565b505050505050565b60008060078360405161096e9190612115565b9081526020016040518091039020549050600061098b85836103ed565b11949350505050565b606081518351146109f95760405162461bcd60e51b815260206004820152602960248201527f455243313135353a206163636f756e747320616e6420696473206c656e677468604482015268040dad2e6dac2e8c6d60bb1b6064820152608401610455565b6000835167ffffffffffffffff811115610a2357634e487b7160e01b600052604160045260246000fd5b604051908082528060200260200182016040528015610a4c578160200160208202803683370190505b50905060005b8451811015610aee57610ab3858281518110610a7e57634e487b7160e01b600052603260045260246000fd5b6020026020010151858381518110610aa657634e487b7160e01b600052603260045260246000fd5b60200260200101516103ed565b828281518110610ad357634e487b7160e01b600052603260045260246000fd5b6020908102919091010152610ae78161254b565b9050610a52565b509392505050565b60606000610b0360045490565b9050600060015b828111610b43576000610b1d33836103ed565b1115610b315781610b2d8161254b565b9250505b80610b3b8161254b565b915050610b0a565b506000808267ffffffffffffffff811115610b6e57634e487b7160e01b600052604160045260246000fd5b604051908082528060200260200182016040528015610bd157816020015b610bbe6040518060a0016040528060008152602001600081526020016000815260200160608152602001606081525090565b815260200190600190039081610b8c5790505b50905060015b848111610d9c576000610bea33836103ed565b1115610d8a57600860008281526020019081526020016000206040518060a0016040529081600082015481526020016001820154815260200160028201548152602001600382018054610c3c906124e3565b80601f0160208091040260200160405190810160405280929190818152602001828054610c68906124e3565b8015610cb55780601f10610c8a57610100808354040283529160200191610cb5565b820191906000526020600020905b815481529060010190602001808311610c9857829003601f168201915b50505050508152602001600482018054610cce906124e3565b80601f0160208091040260200160405190810160405280929190818152602001828054610cfa906124e3565b8015610d475780601f10610d1c57610100808354040283529160200191610d47565b820191906000526020600020905b815481529060010190602001808311610d2a57829003601f168201915b505050505081525050828481518110610d7057634e487b7160e01b600052603260045260246000fd5b60200260200101819052508280610d869061254b565b9350505b80610d948161254b565b915050610bd7565b50949350505050565b6003546001600160a01b03163314610dcf5760405162461bcd60e51b815260040161045590612442565b610dd9600061175a565b565b60058054610de8906124e3565b80601f0160208091040260200160405190810160405280929190818152602001828054610e14906124e3565b8015610e615780601f10610e3657610100808354040283529160200191610e61565b820191906000526020600020905b815481529060010190602001808311610e4457829003601f168201915b505050505081565b610e743383836117ac565b5050565b60606006805480602002602001604051908101604052809291908181526020016000905b8282101561101057838290600052602060002090600502016040518060a0016040529081600082015481526020016001820154815260200160028201548152602001600382018054610eed906124e3565b80601f0160208091040260200160405190810160405280929190818152602001828054610f19906124e3565b8015610f665780601f10610f3b57610100808354040283529160200191610f66565b820191906000526020600020905b815481529060010190602001808311610f4957829003601f168201915b50505050508152602001600482018054610f7f906124e3565b80601f0160208091040260200160405190810160405280929190818152602001828054610fab906124e3565b8015610ff85780601f10610fcd57610100808354040283529160200191610ff8565b820191906000526020600020905b815481529060010190602001808311610fdb57829003601f168201915b50505050508152505081526020019060010190610e9c565b50505050905090565b6000600860008381526020019081526020016000206040518060a0016040529081600082015481526020016001820154815260200160028201548152602001600382018054611067906124e3565b80601f0160208091040260200160405190810160405280929190818152602001828054611093906124e3565b80156110e05780601f106110b5576101008083540402835291602001916110e0565b820191906000526020600020905b8154815290600101906020018083116110c357829003601f168201915b505050505081526020016004820180546110f9906124e3565b80601f0160208091040260200160405190810160405280929190818152602001828054611125906124e3565b80156111725780601f1061114757610100808354040283529160200191611172565b820191906000526020600020905b81548152906001019060200180831161115557829003601f168201915b505050505081525050905080604001513410156111d15760405162461bcd60e51b815260206004820152601e60248201527f4e6f7420656e6f7567682045544820666f72207472616e73616374696f6e00006044820152606401610455565b610e743033846001604051806040016040528060048152602001630307830360e41b81525061163d565b6001600160a01b03851633148061121757506112178533610340565b6112755760405162461bcd60e51b815260206004820152602960248201527f455243313135353a2063616c6c6572206973206e6f74206f776e6572206e6f7260448201526808185c1c1c9bdd995960ba1b6064820152608401610455565b6106ba858585858561163d565b6003546001600160a01b031633146112ac5760405162461bcd60e51b815260040161045590612442565b6001600160a01b0381166113115760405162461bcd60e51b815260206004820152602660248201527f4f776e61626c653a206e6577206f776e657220697320746865207a65726f206160448201526564647265737360d01b6064820152608401610455565b61131a8161175a565b50565b60006001600160e01b03198216630271189760e51b148061048f575061048f8261188d565b81518351146113a45760405162461bcd60e51b815260206004820152602860248201527f455243313135353a2069647320616e6420616d6f756e7473206c656e677468206044820152670dad2e6dac2e8c6d60c31b6064820152608401610455565b6001600160a01b0384166113ca5760405162461bcd60e51b8152600401610455906123b3565b3360005b84518110156114cd5760008582815181106113f957634e487b7160e01b600052603260045260246000fd5b60200260200101519050600085838151811061142557634e487b7160e01b600052603260045260246000fd5b602090810291909101810151600084815280835260408082206001600160a01b038e1683529093529190912054909150818110156114755760405162461bcd60e51b8152600401610455906123f8565b6000838152602081815260408083206001600160a01b038e8116855292528083208585039055908b168252812080548492906114b290849061249b565b92505081905550505050806114c69061254b565b90506113ce565b50846001600160a01b0316866001600160a01b0316826001600160a01b03167f4a39dc06d4c0dbc64b70af90fd698a233a518aa5d07e595d983b8c0526c8f7fb878760405161151d929190612333565b60405180910390a46109538187878787876118dd565b6001600160a01b0384166115935760405162461bcd60e51b815260206004820152602160248201527f455243313135353a206d696e7420746f20746865207a65726f206164647265736044820152607360f81b6064820152608401610455565b336115ad816000876115a488611a48565b6106ba88611a48565b6000848152602081815260408083206001600160a01b0389168452909152812080548592906115dd90849061249b565b909155505060408051858152602081018590526001600160a01b0380881692600092918516917fc3d58168c5ae7397731d063d5bbf3d657854427343f4c083240f7aacaa2d0f62910160405180910390a46106ba81600087878787611aa1565b6001600160a01b0384166116635760405162461bcd60e51b8152600401610455906123b3565b336116738187876115a488611a48565b6000848152602081815260408083206001600160a01b038a168452909152902054838110156116b45760405162461bcd60e51b8152600401610455906123f8565b6000858152602081815260408083206001600160a01b038b81168552925280832087850390559088168252812080548692906116f190849061249b565b909155505060408051868152602081018690526001600160a01b03808916928a821692918616917fc3d58168c5ae7397731d063d5bbf3d657854427343f4c083240f7aacaa2d0f62910160405180910390a4611751828888888888611aa1565b50505050505050565b600380546001600160a01b038381166001600160a01b0319831681179093556040519116919082907f8be0079c531659141344cd1fd0a4f28419497f9722a3daafe3b4186f6b6457e090600090a35050565b816001600160a01b0316836001600160a01b031614156118205760405162461bcd60e51b815260206004820152602960248201527f455243313135353a2073657474696e6720617070726f76616c20737461747573604482015268103337b91039b2b63360b91b6064820152608401610455565b6001600160a01b03838116600081815260016020908152604080832094871680845294825291829020805460ff191686151590811790915591519182527f17307eab39ab6107e8899845ad3d59bd9653f200f220920489ca2b5937696c31910160405180910390a3505050565b60006001600160e01b03198216636cdb3d1360e11b14806118be57506001600160e01b031982166303a24d0760e21b145b8061048f57506301ffc9a760e01b6001600160e01b031983161461048f565b6001600160a01b0384163b156109535760405163bc197c8160e01b81526001600160a01b0385169063bc197c819061192190899089908890889088906004016121d7565b602060405180830381600087803b15801561193b57600080fd5b505af192505050801561196b575060408051601f3d908101601f1916820190925261196891810190611feb565b60015b611a1857611977612592565b806308c379a014156119b1575061198c6125aa565b8061199757506119b3565b8060405162461bcd60e51b81526004016104559190612358565b505b60405162461bcd60e51b815260206004820152603460248201527f455243313135353a207472616e7366657220746f206e6f6e20455243313135356044820152732932b1b2b4bb32b91034b6b83632b6b2b73a32b960611b6064820152608401610455565b6001600160e01b0319811663bc197c8160e01b146117515760405162461bcd60e51b81526004016104559061236b565b60408051600180825281830190925260609160009190602080830190803683370190505090508281600081518110611a9057634e487b7160e01b600052603260045260246000fd5b602090810291909101015292915050565b6001600160a01b0384163b156109535760405163f23a6e6160e01b81526001600160a01b0385169063f23a6e6190611ae59089908990889088908890600401612235565b602060405180830381600087803b158015611aff57600080fd5b505af1925050508015611b2f575060408051601f3d908101601f19168201909252611b2c91810190611feb565b60015b611b3b57611977612592565b6001600160e01b0319811663f23a6e6160e01b146117515760405162461bcd60e51b81526004016104559061236b565b828054611b77906124e3565b90600052602060002090601f016020900481019282611b995760008555611bdf565b82601f10611bb257805160ff1916838001178555611bdf565b82800160010185558215611bdf579182015b82811115611bdf578251825591602001919060010190611bc4565b50611beb929150611bef565b5090565b5b80821115611beb5760008155600101611bf0565b80356001600160a01b0381168114611c1b57600080fd5b919050565b600082601f830112611c30578081fd5b81356020611c3d82612477565b604051611c4a828261251e565b8381528281019150858301600585901b87018401881015611c69578586fd5b855b85811015611c8757813584529284019290840190600101611c6b565b5090979650505050505050565b600082601f830112611ca4578081fd5b813567ffffffffffffffff811115611cbe57611cbe61257c565b604051611cd5601f8301601f19166020018261251e565b818152846020838601011115611ce9578283fd5b816020850160208301379081016020019190915292915050565b600060208284031215611d14578081fd5b611d1d82611c04565b9392505050565b60008060408385031215611d36578081fd5b611d3f83611c04565b9150611d4d60208401611c04565b90509250929050565b600080600080600060a08688031215611d6d578081fd5b611d7686611c04565b9450611d8460208701611c04565b9350604086013567ffffffffffffffff80821115611da0578283fd5b611dac89838a01611c20565b94506060880135915080821115611dc1578283fd5b611dcd89838a01611c20565b93506080880135915080821115611de2578283fd5b50611def88828901611c94565b9150509295509295909350565b600080600080600060a08688031215611e13578081fd5b611e1c86611c04565b9450611e2a60208701611c04565b93506040860135925060608601359150608086013567ffffffffffffffff811115611e53578182fd5b611def88828901611c94565b60008060408385031215611e71578182fd5b611e7a83611c04565b915060208301358015158114611e8e578182fd5b809150509250929050565b60008060408385031215611eab578182fd5b611eb483611c04565b9150602083013567ffffffffffffffff811115611ecf578182fd5b611edb85828601611c94565b9150509250929050565b60008060408385031215611ef7578182fd5b611f0083611c04565b946020939093013593505050565b60008060408385031215611f20578182fd5b823567ffffffffffffffff80821115611f37578384fd5b818501915085601f830112611f4a578384fd5b81356020611f5782612477565b604051611f64828261251e565b8381528281019150858301600585901b870184018b1015611f83578889fd5b8896505b84871015611fac57611f9881611c04565b835260019690960195918301918301611f87565b5096505086013592505080821115611fc2578283fd5b50611edb85828601611c20565b600060208284031215611fe0578081fd5b8135611d1d81612634565b600060208284031215611ffc578081fd5b8151611d1d81612634565b6000806000806080858703121561201c578182fd5b843567ffffffffffffffff80821115612033578384fd5b61203f88838901611c94565b955060208701359450604087013593506060870135915080821115612062578283fd5b5061206f87828801611c94565b91505092959194509250565b60006020828403121561208c578081fd5b5035919050565b6000815180845260208085019450808401835b838110156120c2578151875295820195908201906001016120a6565b509495945050505050565b600081518084526120e58160208601602086016124b3565b601f01601f19169290920160200192915050565b6000815161210b8185602086016124b3565b9290920192915050565b600082516121278184602087016124b3565b9190910192915050565b600080845482600182811c91508083168061214d57607f831692505b602080841082141561216d57634e487b7160e01b87526022600452602487fd5b8180156121815760018114612192576121be565b60ff198616895284890196506121be565b60008b815260209020885b868110156121b65781548b82015290850190830161219d565b505084890196505b5050505050506121ce81856120f9565b95945050505050565b6001600160a01b0386811682528516602082015260a06040820181905260009061220390830186612093565b82810360608401526122158186612093565b9050828103608084015261222981856120cd565b98975050505050505050565b6001600160a01b03868116825285166020820152604081018490526060810183905260a06080820181905260009061226f908301846120cd565b979650505050505050565b60006020808301818452808551808352604092508286019150828160051b870101848801865b8381101561231257603f19898403018552815160a0815185528882015189860152878201518886015260608083015182828801526122e0838801826120cd565b92505050608080830151925085820381870152506122fe81836120cd565b9689019694505050908601906001016122a0565b509098975050505050505050565b602081526000611d1d6020830184612093565b6040815260006123466040830185612093565b82810360208401526121ce8185612093565b602081526000611d1d60208301846120cd565b60208082526028908201527f455243313135353a204552433131353552656365697665722072656a656374656040820152676420746f6b656e7360c01b606082015260800190565b60208082526025908201527f455243313135353a207472616e7366657220746f20746865207a65726f206164604082015264647265737360d81b606082015260800190565b6020808252602a908201527f455243313135353a20696e73756666696369656e742062616c616e636520666f60408201526939103a3930b739b332b960b11b606082015260800190565b6020808252818101527f4f776e61626c653a2063616c6c6572206973206e6f7420746865206f776e6572604082015260600190565b600067ffffffffffffffff8211156124915761249161257c565b5060051b60200190565b600082198211156124ae576124ae612566565b500190565b60005b838110156124ce5781810151838201526020016124b6565b838111156124dd576000848401525b50505050565b600181811c908216806124f757607f821691505b6020821081141561251857634e487b7160e01b600052602260045260246000fd5b50919050565b601f8201601f1916810167ffffffffffffffff811182821017156125445761254461257c565b6040525050565b600060001982141561255f5761255f612566565b5060010190565b634e487b7160e01b600052601160045260246000fd5b634e487b7160e01b600052604160045260246000fd5b600060033d11156125a757600481823e5160e01c5b90565b600060443d10156125b85790565b6040516003193d81016004833e81513d67ffffffffffffffff81602484011181841117156125e857505050505090565b82850191508151818111156126005750505050505090565b843d870101602082850101111561261a5750505050505090565b6126296020828601018761251e565b509095945050505050565b6001600160e01b03198116811461131a57600080fdfea26469706673582212205d8eb4cd7680cd39060b3869e438e2efc9318a0baecbcfd946e6711310af39a764736f6c63430008040033",
  "linkReferences": {},
  "deployedLinkReferences": {}
}