{
  "_format": "hh-sol-artifact-1",
  "contractName": "AccessToken",
  "sourceName": "contracts/AccessToken.sol",
  "abi": [
    {
      "inputs": [
        {
          "internalType": "string",
          "name": "uri",
          "type": "string"
        }
      ],
      "stateMutability": "nonpayable",
      "type": "constructor"
    },
    {
      "anonymous": false,
      "inputs": [
        {
          "indexed": true,
          "internalType": "address",
          "name": "account",
          "type": "address"
        },
        {
          "indexed": true,
          "internalType": "address",
          "name": "operator",
          "type": "address"
        },
        {
          "indexed": false,
          "internalType": "bool",
          "name": "approved",
          "type": "bool"
        }
      ],
      "name": "ApprovalForAll",
      "type": "event"
    },
    {
      "anonymous": false,
      "inputs": [
        {
          "indexed": true,
          "internalType": "address",
          "name": "operator",
          "type": "address"
        },
        {
          "indexed": true,
          "internalType": "address",
          "name": "from",
          "type": "address"
        },
        {
          "indexed": true,
          "internalType": "address",
          "name": "to",
          "type": "address"
        },
        {
          "indexed": false,
          "internalType": "uint256[]",
          "name": "ids",
          "type": "uint256[]"
        },
        {
          "indexed": false,
          "internalType": "uint256[]",
          "name": "values",
          "type": "uint256[]"
        }
      ],
      "name": "TransferBatch",
      "type": "event"
    },
    {
      "anonymous": false,
      "inputs": [
        {
          "indexed": true,
          "internalType": "address",
          "name": "operator",
          "type": "address"
        },
        {
          "indexed": true,
          "internalType": "address",
          "name": "from",
          "type": "address"
        },
        {
          "indexed": true,
          "internalType": "address",
          "name": "to",
          "type": "address"
        },
        {
          "indexed": false,
          "internalType": "uint256",
          "name": "id",
          "type": "uint256"
        },
        {
          "indexed": false,
          "internalType": "uint256",
          "name": "value",
          "type": "uint256"
        }
      ],
      "name": "TransferSingle",
      "type": "event"
    },
    {
      "anonymous": false,
      "inputs": [
        {
          "indexed": false,
          "internalType": "string",
          "name": "value",
          "type": "string"
        },
        {
          "indexed": true,
          "internalType": "uint256",
          "name": "id",
          "type": "uint256"
        }
      ],
      "name": "URI",
      "type": "event"
    },
    {
      "inputs": [
        {
          "internalType": "address",
          "name": "account",
          "type": "address"
        },
        {
          "internalType": "string",
          "name": "slug",
          "type": "string"
        }
      ],
      "name": "authenticate",
      "outputs": [
        {
          "internalType": "bool",
          "name": "",
          "type": "bool"
        }
      ],
      "stateMutability": "view",
      "type": "function"
    },
    {
      "inputs": [
        {
          "internalType": "address",
          "name": "account",
          "type": "address"
        },
        {
          "internalType": "uint256",
          "name": "id",
          "type": "uint256"
        }
      ],
      "name": "balanceOf",
      "outputs": [
        {
          "internalType": "uint256",
          "name": "",
          "type": "uint256"
        }
      ],
      "stateMutability": "view",
      "type": "function"
    },
    {
      "inputs": [
        {
          "internalType": "address[]",
          "name": "accounts",
          "type": "address[]"
        },
        {
          "internalType": "uint256[]",
          "name": "ids",
          "type": "uint256[]"
        }
      ],
      "name": "balanceOfBatch",
      "outputs": [
        {
          "internalType": "uint256[]",
          "name": "",
          "type": "uint256[]"
        }
      ],
      "stateMutability": "view",
      "type": "function"
    },
    {
      "inputs": [],
      "name": "getTokens",
      "outputs": [
        {
          "components": [
            {
              "internalType": "uint256",
              "name": "tokenId",
              "type": "uint256"
            },
            {
              "internalType": "uint256",
              "name": "amount",
              "type": "uint256"
            },
            {
              "internalType": "uint256",
              "name": "price",
              "type": "uint256"
            },
            {
              "internalType": "string",
              "name": "slug",
              "type": "string"
            },
            {
              "internalType": "string",
              "name": "ipfsHash",
              "type": "string"
            }
          ],
          "internalType": "struct AccessToken.Token[]",
          "name": "",
          "type": "tuple[]"
        }
      ],
      "stateMutability": "view",
      "type": "function"
    },
    {
      "inputs": [
        {
          "internalType": "address",
          "name": "account",
          "type": "address"
        },
        {
          "internalType": "address",
          "name": "operator",
          "type": "address"
        }
      ],
      "name": "isApprovedForAll",
      "outputs": [
        {
          "internalType": "bool",
          "name": "",
          "type": "bool"
        }
      ],
      "stateMutability": "view",
      "type": "function"
    },
    {
      "inputs": [
        {
          "internalType": "string",
          "name": "slug",
          "type": "string"
        },
        {
          "internalType": "uint256",
          "name": "amount",
          "type": "uint256"
        },
        {
          "internalType": "uint256",
          "name": "price",
          "type": "uint256"
        },
        {
          "internalType": "string",
          "name": "ipfsHash",
          "type": "string"
        }
      ],
      "name": "mint",
      "outputs": [],
      "stateMutability": "nonpayable",
      "type": "function"
    },
    {
      "inputs": [
        {
          "internalType": "address",
          "name": "",
          "type": "address"
        },
        {
          "internalType": "address",
          "name": "",
          "type": "address"
        },
        {
          "internalType": "uint256[]",
          "name": "",
          "type": "uint256[]"
        },
        {
          "internalType": "uint256[]",
          "name": "",
          "type": "uint256[]"
        },
        {
          "internalType": "bytes",
          "name": "",
          "type": "bytes"
        }
      ],
      "name": "onERC1155BatchReceived",
      "outputs": [
        {
          "internalType": "bytes4",
          "name": "",
          "type": "bytes4"
        }
      ],
      "stateMutability": "nonpayable",
      "type": "function"
    },
    {
      "inputs": [
        {
          "internalType": "address",
          "name": "",
          "type": "address"
        },
        {
          "internalType": "address",
          "name": "",
          "type": "address"
        },
        {
          "internalType": "uint256",
          "name": "",
          "type": "uint256"
        },
        {
          "internalType": "uint256",
          "name": "",
          "type": "uint256"
        },
        {
          "internalType": "bytes",
          "name": "",
          "type": "bytes"
        }
      ],
      "name": "onERC1155Received",
      "outputs": [
        {
          "internalType": "bytes4",
          "name": "",
          "type": "bytes4"
        }
      ],
      "stateMutability": "nonpayable",
      "type": "function"
    },
    {
      "inputs": [
        {
          "internalType": "uint256",
          "name": "tokenId",
          "type": "uint256"
        }
      ],
      "name": "purchase",
      "outputs": [],
      "stateMutability": "payable",
      "type": "function"
    },
    {
      "inputs": [
        {
          "internalType": "address",
          "name": "from",
          "type": "address"
        },
        {
          "internalType": "address",
          "name": "to",
          "type": "address"
        },
        {
          "internalType": "uint256[]",
          "name": "ids",
          "type": "uint256[]"
        },
        {
          "internalType": "uint256[]",
          "name": "amounts",
          "type": "uint256[]"
        },
        {
          "internalType": "bytes",
          "name": "data",
          "type": "bytes"
        }
      ],
      "name": "safeBatchTransferFrom",
      "outputs": [],
      "stateMutability": "nonpayable",
      "type": "function"
    },
    {
      "inputs": [
        {
          "internalType": "address",
          "name": "from",
          "type": "address"
        },
        {
          "internalType": "address",
          "name": "to",
          "type": "address"
        },
        {
          "internalType": "uint256",
          "name": "id",
          "type": "uint256"
        },
        {
          "internalType": "uint256",
          "name": "amount",
          "type": "uint256"
        },
        {
          "internalType": "bytes",
          "name": "data",
          "type": "bytes"
        }
      ],
      "name": "safeTransferFrom",
      "outputs": [],
      "stateMutability": "nonpayable",
      "type": "function"
    },
    {
      "inputs": [
        {
          "internalType": "address",
          "name": "operator",
          "type": "address"
        },
        {
          "internalType": "bool",
          "name": "approved",
          "type": "bool"
        }
      ],
      "name": "setApprovalForAll",
      "outputs": [],
      "stateMutability": "nonpayable",
      "type": "function"
    },
    {
      "inputs": [
        {
          "internalType": "bytes4",
          "name": "interfaceId",
          "type": "bytes4"
        }
      ],
      "name": "supportsInterface",
      "outputs": [
        {
          "internalType": "bool",
          "name": "",
          "type": "bool"
        }
      ],
      "stateMutability": "view",
      "type": "function"
    },
    {
      "inputs": [
        {
          "internalType": "uint256",
          "name": "",
          "type": "uint256"
        }
      ],
      "name": "uri",
      "outputs": [
        {
          "internalType": "string",
          "name": "",
          "type": "string"
        }
      ],
      "stateMutability": "view",
      "type": "function"
    }
  ],
  "bytecode": "0x60806040523480156200001157600080fd5b506040516200217238038062002172833981016040819052620000349162000107565b80620000408162000048565b505062000230565b80516200005d90600290602084019062000061565b5050565b8280546200006f90620001dd565b90600052602060002090601f016020900481019282620000935760008555620000de565b82601f10620000ae57805160ff1916838001178555620000de565b82800160010185558215620000de579182015b82811115620000de578251825591602001919060010190620000c1565b50620000ec929150620000f0565b5090565b5b80821115620000ec5760008155600101620000f1565b600060208083850312156200011a578182fd5b82516001600160401b038082111562000131578384fd5b818501915085601f83011262000145578384fd5b8151818111156200015a576200015a6200021a565b604051601f8201601f19908116603f011681019083821181831017156200018557620001856200021a565b8160405282815288868487010111156200019d578687fd5b8693505b82841015620001c05784840186015181850187015292850192620001a1565b82841115620001d157868684830101525b98975050505050505050565b600181811c90821680620001f257607f821691505b602082108114156200021457634e487b7160e01b600052602260045260246000fd5b50919050565b634e487b7160e01b600052604160045260246000fd5b611f3280620002406000396000f3fe6080604052600436106100dc5760003560e01c8063a22cb4651161007f578063e985e9c511610059578063e985e9c514610287578063efef39a1146102d0578063f23a6e61146102e3578063f242432a1461030f57600080fd5b8063a22cb46514610200578063aa6ca80814610220578063bc197c811461024257600080fd5b80632eb2c2d6116100bb5780632eb2c2d6146101715780632ed2a5c0146101935780634d82d477146101b35780634e1273f4146101d357600080fd5b8062fdd58e146100e157806301ffc9a7146101145780630e89341c14610144575b600080fd5b3480156100ed57600080fd5b506101016100fc36600461187b565b61032f565b6040519081526020015b60405180910390f35b34801561012057600080fd5b5061013461012f366004611965565b6103c6565b604051901515815260200161010b565b34801561015057600080fd5b5061016461015f366004611a18565b6103d7565b60405161010b9190611c3c565b34801561017d57600080fd5b5061019161018c3660046116ec565b61046b565b005b34801561019f57600080fd5b506101916101ae3660046119a4565b610502565b3480156101bf57600080fd5b506101346101ce36600461182f565b610772565b3480156101df57600080fd5b506101f36101ee3660046118a4565b6107ab565b60405161010b9190611bfb565b34801561020c57600080fd5b5061019161021b3660046117f5565b61090d565b34801561022c57600080fd5b5061023561091c565b60405161010b9190611b55565b34801561024e57600080fd5b5061026e61025d3660046116ec565b63bc197c8160e01b95945050505050565b6040516001600160e01b0319909116815260200161010b565b34801561029357600080fd5b506101346102a23660046116ba565b6001600160a01b03918216600090815260016020908152604080832093909416825291909152205460ff1690565b6101916102de366004611a18565b610abd565b3480156102ef57600080fd5b5061026e6102fe366004611792565b63f23a6e6160e01b95945050505050565b34801561031b57600080fd5b5061019161032a366004611792565b610c9f565b60006001600160a01b0383166103a05760405162461bcd60e51b815260206004820152602b60248201527f455243313135353a2062616c616e636520717565727920666f7220746865207a60448201526a65726f206164647265737360a81b60648201526084015b60405180910390fd5b506000908152602081815260408083206001600160a01b03949094168352929052205490565b60006103d182610d26565b92915050565b6060600280546103e690611d92565b80601f016020809104026020016040519081016040528092919081815260200182805461041290611d92565b801561045f5780601f106104345761010080835404028352916020019161045f565b820191906000526020600020905b81548152906001019060200180831161044257829003601f168201915b50505050509050919050565b6001600160a01b038516331480610487575061048785336102a2565b6104ee5760405162461bcd60e51b815260206004820152603260248201527f455243313135353a207472616e736665722063616c6c6572206973206e6f74206044820152711bdddb995c881b9bdc88185c1c1c9bdd995960721b6064820152608401610397565b6104fb8585858585610d4b565b5050505050565b6005846040516105129190611a96565b9081526020016040518091039020546000146105655760405162461bcd60e51b815260206004820152601260248201527129b63ab39030b63932b0b23c903a30b5b2b760711b6044820152606401610397565b610573600380546001019055565b600061057e60035490565b905060006040518060a00160405280838152602001868152602001858152602001878152602001848152509050816005876040516105bc9190611a96565b9081526040805160209281900383019020929092556004805460018101825560009190915283517f8a35acfbc15ff81a39ae7d344fd709f28e8600b4aa8c65c6b64bfe7fe36bd19b6005909202918201908155848301517f8a35acfbc15ff81a39ae7d344fd709f28e8600b4aa8c65c6b64bfe7fe36bd19c830155928401517f8a35acfbc15ff81a39ae7d344fd709f28e8600b4aa8c65c6b64bfe7fe36bd19d82015560608401518051859493610697937f8a35acfbc15ff81a39ae7d344fd709f28e8600b4aa8c65c6b64bfe7fe36bd19e01920190611522565b50608082015180516106b3916004840191602090910190611522565b50505060008281526006602090815260409182902083518155818401516001820155918301516002830155606083015180518493926106f9926003850192910190611522565b5060808201518051610715916004840191602090910190611522565b50905050610741338387604051806040016040528060048152602001630307830360e41b815250610f3c565b61076a33308488604051806040016040528060048152602001630307830360e41b815250611046565b505050505050565b6000806005836040516107859190611a96565b908152602001604051809103902054905060006107a2858361032f565b11949350505050565b606081518351146108105760405162461bcd60e51b815260206004820152602960248201527f455243313135353a206163636f756e747320616e6420696473206c656e677468604482015268040dad2e6dac2e8c6d60bb1b6064820152608401610397565b6000835167ffffffffffffffff81111561083a57634e487b7160e01b600052604160045260246000fd5b604051908082528060200260200182016040528015610863578160200160208202803683370190505b50905060005b8451811015610905576108ca85828151811061089557634e487b7160e01b600052603260045260246000fd5b60200260200101518583815181106108bd57634e487b7160e01b600052603260045260246000fd5b602002602001015161032f565b8282815181106108ea57634e487b7160e01b600052603260045260246000fd5b60209081029190910101526108fe81611dfa565b9050610869565b509392505050565b610918338383611163565b5050565b60606004805480602002602001604051908101604052809291908181526020016000905b82821015610ab457838290600052602060002090600502016040518060a001604052908160008201548152602001600182015481526020016002820154815260200160038201805461099190611d92565b80601f01602080910402602001604051908101604052809291908181526020018280546109bd90611d92565b8015610a0a5780601f106109df57610100808354040283529160200191610a0a565b820191906000526020600020905b8154815290600101906020018083116109ed57829003601f168201915b50505050508152602001600482018054610a2390611d92565b80601f0160208091040260200160405190810160405280929190818152602001828054610a4f90611d92565b8015610a9c5780601f10610a7157610100808354040283529160200191610a9c565b820191906000526020600020905b815481529060010190602001808311610a7f57829003601f168201915b50505050508152505081526020019060010190610940565b50505050905090565b6000600660008381526020019081526020016000206040518060a0016040529081600082015481526020016001820154815260200160028201548152602001600382018054610b0b90611d92565b80601f0160208091040260200160405190810160405280929190818152602001828054610b3790611d92565b8015610b845780601f10610b5957610100808354040283529160200191610b84565b820191906000526020600020905b815481529060010190602001808311610b6757829003601f168201915b50505050508152602001600482018054610b9d90611d92565b80601f0160208091040260200160405190810160405280929190818152602001828054610bc990611d92565b8015610c165780601f10610beb57610100808354040283529160200191610c16565b820191906000526020600020905b815481529060010190602001808311610bf957829003601f168201915b50505050508152505090508060400151341015610c755760405162461bcd60e51b815260206004820152601e60248201527f4e6f7420656e6f7567682045544820666f72207472616e73616374696f6e00006044820152606401610397565b6109183033846001604051806040016040528060048152602001630307830360e41b815250611046565b6001600160a01b038516331480610cbb5750610cbb85336102a2565b610d195760405162461bcd60e51b815260206004820152602960248201527f455243313135353a2063616c6c6572206973206e6f74206f776e6572206e6f7260448201526808185c1c1c9bdd995960ba1b6064820152608401610397565b6104fb8585858585611046565b60006001600160e01b03198216630271189760e51b14806103d157506103d182611244565b8151835114610dad5760405162461bcd60e51b815260206004820152602860248201527f455243313135353a2069647320616e6420616d6f756e7473206c656e677468206044820152670dad2e6dac2e8c6d60c31b6064820152608401610397565b6001600160a01b038416610dd35760405162461bcd60e51b815260040161039790611c97565b3360005b8451811015610ed6576000858281518110610e0257634e487b7160e01b600052603260045260246000fd5b602002602001015190506000858381518110610e2e57634e487b7160e01b600052603260045260246000fd5b602090810291909101810151600084815280835260408082206001600160a01b038e168352909352919091205490915081811015610e7e5760405162461bcd60e51b815260040161039790611cdc565b6000838152602081815260408083206001600160a01b038e8116855292528083208585039055908b16825281208054849290610ebb908490611d4a565b9250508190555050505080610ecf90611dfa565b9050610dd7565b50846001600160a01b0316866001600160a01b0316826001600160a01b03167f4a39dc06d4c0dbc64b70af90fd698a233a518aa5d07e595d983b8c0526c8f7fb8787604051610f26929190611c0e565b60405180910390a461076a818787878787611294565b6001600160a01b038416610f9c5760405162461bcd60e51b815260206004820152602160248201527f455243313135353a206d696e7420746f20746865207a65726f206164647265736044820152607360f81b6064820152608401610397565b33610fb681600087610fad886113ff565b6104fb886113ff565b6000848152602081815260408083206001600160a01b038916845290915281208054859290610fe6908490611d4a565b909155505060408051858152602081018590526001600160a01b0380881692600092918516917fc3d58168c5ae7397731d063d5bbf3d657854427343f4c083240f7aacaa2d0f62910160405180910390a46104fb81600087878787611458565b6001600160a01b03841661106c5760405162461bcd60e51b815260040161039790611c97565b3361107c818787610fad886113ff565b6000848152602081815260408083206001600160a01b038a168452909152902054838110156110bd5760405162461bcd60e51b815260040161039790611cdc565b6000858152602081815260408083206001600160a01b038b81168552925280832087850390559088168252812080548692906110fa908490611d4a565b909155505060408051868152602081018690526001600160a01b03808916928a821692918616917fc3d58168c5ae7397731d063d5bbf3d657854427343f4c083240f7aacaa2d0f62910160405180910390a461115a828888888888611458565b50505050505050565b816001600160a01b0316836001600160a01b031614156111d75760405162461bcd60e51b815260206004820152602960248201527f455243313135353a2073657474696e6720617070726f76616c20737461747573604482015268103337b91039b2b63360b91b6064820152608401610397565b6001600160a01b03838116600081815260016020908152604080832094871680845294825291829020805460ff191686151590811790915591519182527f17307eab39ab6107e8899845ad3d59bd9653f200f220920489ca2b5937696c31910160405180910390a3505050565b60006001600160e01b03198216636cdb3d1360e11b148061127557506001600160e01b031982166303a24d0760e21b145b806103d157506301ffc9a760e01b6001600160e01b03198316146103d1565b6001600160a01b0384163b1561076a5760405163bc197c8160e01b81526001600160a01b0385169063bc197c81906112d89089908990889088908890600401611ab2565b602060405180830381600087803b1580156112f257600080fd5b505af1925050508015611322575060408051601f3d908101601f1916820190925261131f91810190611988565b60015b6113cf5761132e611e41565b806308c379a014156113685750611343611e59565b8061134e575061136a565b8060405162461bcd60e51b81526004016103979190611c3c565b505b60405162461bcd60e51b815260206004820152603460248201527f455243313135353a207472616e7366657220746f206e6f6e20455243313135356044820152732932b1b2b4bb32b91034b6b83632b6b2b73a32b960611b6064820152608401610397565b6001600160e01b0319811663bc197c8160e01b1461115a5760405162461bcd60e51b815260040161039790611c4f565b6040805160018082528183019092526060916000919060208083019080368337019050509050828160008151811061144757634e487b7160e01b600052603260045260246000fd5b602090810291909101015292915050565b6001600160a01b0384163b1561076a5760405163f23a6e6160e01b81526001600160a01b0385169063f23a6e619061149c9089908990889088908890600401611b10565b602060405180830381600087803b1580156114b657600080fd5b505af19250505080156114e6575060408051601f3d908101601f191682019092526114e391810190611988565b60015b6114f25761132e611e41565b6001600160e01b0319811663f23a6e6160e01b1461115a5760405162461bcd60e51b815260040161039790611c4f565b82805461152e90611d92565b90600052602060002090601f0160209004810192826115505760008555611596565b82601f1061156957805160ff1916838001178555611596565b82800160010185558215611596579182015b8281111561159657825182559160200191906001019061157b565b506115a29291506115a6565b5090565b5b808211156115a257600081556001016115a7565b80356001600160a01b03811681146115d257600080fd5b919050565b600082601f8301126115e7578081fd5b813560206115f482611d26565b6040516116018282611dcd565b8381528281019150858301600585901b87018401881015611620578586fd5b855b8581101561163e57813584529284019290840190600101611622565b5090979650505050505050565b600082601f83011261165b578081fd5b813567ffffffffffffffff81111561167557611675611e2b565b60405161168c601f8301601f191660200182611dcd565b8181528460208386010111156116a0578283fd5b816020850160208301379081016020019190915292915050565b600080604083850312156116cc578182fd5b6116d5836115bb565b91506116e3602084016115bb565b90509250929050565b600080600080600060a08688031215611703578081fd5b61170c866115bb565b945061171a602087016115bb565b9350604086013567ffffffffffffffff80821115611736578283fd5b61174289838a016115d7565b94506060880135915080821115611757578283fd5b61176389838a016115d7565b93506080880135915080821115611778578283fd5b506117858882890161164b565b9150509295509295909350565b600080600080600060a086880312156117a9578081fd5b6117b2866115bb565b94506117c0602087016115bb565b93506040860135925060608601359150608086013567ffffffffffffffff8111156117e9578182fd5b6117858882890161164b565b60008060408385031215611807578182fd5b611810836115bb565b915060208301358015158114611824578182fd5b809150509250929050565b60008060408385031215611841578182fd5b61184a836115bb565b9150602083013567ffffffffffffffff811115611865578182fd5b6118718582860161164b565b9150509250929050565b6000806040838503121561188d578182fd5b611896836115bb565b946020939093013593505050565b600080604083850312156118b6578182fd5b823567ffffffffffffffff808211156118cd578384fd5b818501915085601f8301126118e0578384fd5b813560206118ed82611d26565b6040516118fa8282611dcd565b8381528281019150858301600585901b870184018b1015611919578889fd5b8896505b848710156119425761192e816115bb565b83526001969096019591830191830161191d565b5096505086013592505080821115611958578283fd5b50611871858286016115d7565b600060208284031215611976578081fd5b813561198181611ee3565b9392505050565b600060208284031215611999578081fd5b815161198181611ee3565b600080600080608085870312156119b9578182fd5b843567ffffffffffffffff808211156119d0578384fd5b6119dc8883890161164b565b9550602087013594506040870135935060608701359150808211156119ff578283fd5b50611a0c8782880161164b565b91505092959194509250565b600060208284031215611a29578081fd5b5035919050565b6000815180845260208085019450808401835b83811015611a5f57815187529582019590820190600101611a43565b509495945050505050565b60008151808452611a82816020860160208601611d62565b601f01601f19169290920160200192915050565b60008251611aa8818460208701611d62565b9190910192915050565b6001600160a01b0386811682528516602082015260a060408201819052600090611ade90830186611a30565b8281036060840152611af08186611a30565b90508281036080840152611b048185611a6a565b98975050505050505050565b6001600160a01b03868116825285166020820152604081018490526060810183905260a060808201819052600090611b4a90830184611a6a565b979650505050505050565b60006020808301818452808551808352604092508286019150828160051b870101848801865b83811015611bed57603f19898403018552815160a081518552888201518986015287820151888601526060808301518282880152611bbb83880182611a6a565b9250505060808083015192508582038187015250611bd98183611a6a565b968901969450505090860190600101611b7b565b509098975050505050505050565b6020815260006119816020830184611a30565b604081526000611c216040830185611a30565b8281036020840152611c338185611a30565b95945050505050565b6020815260006119816020830184611a6a565b60208082526028908201527f455243313135353a204552433131353552656365697665722072656a656374656040820152676420746f6b656e7360c01b606082015260800190565b60208082526025908201527f455243313135353a207472616e7366657220746f20746865207a65726f206164604082015264647265737360d81b606082015260800190565b6020808252602a908201527f455243313135353a20696e73756666696369656e742062616c616e636520666f60408201526939103a3930b739b332b960b11b606082015260800190565b600067ffffffffffffffff821115611d4057611d40611e2b565b5060051b60200190565b60008219821115611d5d57611d5d611e15565b500190565b60005b83811015611d7d578181015183820152602001611d65565b83811115611d8c576000848401525b50505050565b600181811c90821680611da657607f821691505b60208210811415611dc757634e487b7160e01b600052602260045260246000fd5b50919050565b601f8201601f1916810167ffffffffffffffff81118282101715611df357611df3611e2b565b6040525050565b6000600019821415611e0e57611e0e611e15565b5060010190565b634e487b7160e01b600052601160045260246000fd5b634e487b7160e01b600052604160045260246000fd5b600060033d1115611e5657600481823e5160e01c5b90565b600060443d1015611e675790565b6040516003193d81016004833e81513d67ffffffffffffffff8160248401118184111715611e9757505050505090565b8285019150815181811115611eaf5750505050505090565b843d8701016020828501011115611ec95750505050505090565b611ed860208286010187611dcd565b509095945050505050565b6001600160e01b031981168114611ef957600080fd5b5056fea2646970667358221220c8b776f6737199c0faffbb81d3433bce2d455385fd827e65ff32ed5e85c5d7fa64736f6c63430008040033",
  "linkReferences": {},
  "deployedLinkReferences": {}
}