{
  "_format": "hh-sol-artifact-1",
  "contractName": "AccessToken",
  "sourceName": "contracts/AccessToken.sol",
  "abi": [
    {
      "inputs": [
        {
          "internalType": "string",
          "name": "baseUri",
          "type": "string"
        }
      ],
      "stateMutability": "nonpayable",
      "type": "constructor"
    },
    {
      "anonymous": false,
      "inputs": [
        {
          "indexed": true,
          "internalType": "address",
          "name": "account",
          "type": "address"
        },
        {
          "indexed": true,
          "internalType": "address",
          "name": "operator",
          "type": "address"
        },
        {
          "indexed": false,
          "internalType": "bool",
          "name": "approved",
          "type": "bool"
        }
      ],
      "name": "ApprovalForAll",
      "type": "event"
    },
    {
      "anonymous": false,
      "inputs": [
        {
          "indexed": true,
          "internalType": "address",
          "name": "previousOwner",
          "type": "address"
        },
        {
          "indexed": true,
          "internalType": "address",
          "name": "newOwner",
          "type": "address"
        }
      ],
      "name": "OwnershipTransferred",
      "type": "event"
    },
    {
      "anonymous": false,
      "inputs": [
        {
          "indexed": true,
          "internalType": "address",
          "name": "operator",
          "type": "address"
        },
        {
          "indexed": true,
          "internalType": "address",
          "name": "from",
          "type": "address"
        },
        {
          "indexed": true,
          "internalType": "address",
          "name": "to",
          "type": "address"
        },
        {
          "indexed": false,
          "internalType": "uint256[]",
          "name": "ids",
          "type": "uint256[]"
        },
        {
          "indexed": false,
          "internalType": "uint256[]",
          "name": "values",
          "type": "uint256[]"
        }
      ],
      "name": "TransferBatch",
      "type": "event"
    },
    {
      "anonymous": false,
      "inputs": [
        {
          "indexed": true,
          "internalType": "address",
          "name": "operator",
          "type": "address"
        },
        {
          "indexed": true,
          "internalType": "address",
          "name": "from",
          "type": "address"
        },
        {
          "indexed": true,
          "internalType": "address",
          "name": "to",
          "type": "address"
        },
        {
          "indexed": false,
          "internalType": "uint256",
          "name": "id",
          "type": "uint256"
        },
        {
          "indexed": false,
          "internalType": "uint256",
          "name": "value",
          "type": "uint256"
        }
      ],
      "name": "TransferSingle",
      "type": "event"
    },
    {
      "anonymous": false,
      "inputs": [
        {
          "indexed": false,
          "internalType": "string",
          "name": "value",
          "type": "string"
        },
        {
          "indexed": true,
          "internalType": "uint256",
          "name": "id",
          "type": "uint256"
        }
      ],
      "name": "URI",
      "type": "event"
    },
    {
      "inputs": [
        {
          "internalType": "address",
          "name": "account",
          "type": "address"
        },
        {
          "internalType": "string",
          "name": "slug",
          "type": "string"
        }
      ],
      "name": "authenticate",
      "outputs": [
        {
          "internalType": "bool",
          "name": "",
          "type": "bool"
        }
      ],
      "stateMutability": "view",
      "type": "function"
    },
    {
      "inputs": [
        {
          "internalType": "address",
          "name": "account",
          "type": "address"
        },
        {
          "internalType": "uint256",
          "name": "id",
          "type": "uint256"
        }
      ],
      "name": "balanceOf",
      "outputs": [
        {
          "internalType": "uint256",
          "name": "",
          "type": "uint256"
        }
      ],
      "stateMutability": "view",
      "type": "function"
    },
    {
      "inputs": [
        {
          "internalType": "address[]",
          "name": "accounts",
          "type": "address[]"
        },
        {
          "internalType": "uint256[]",
          "name": "ids",
          "type": "uint256[]"
        }
      ],
      "name": "balanceOfBatch",
      "outputs": [
        {
          "internalType": "uint256[]",
          "name": "",
          "type": "uint256[]"
        }
      ],
      "stateMutability": "view",
      "type": "function"
    },
    {
      "inputs": [],
      "name": "getTokens",
      "outputs": [
        {
          "components": [
            {
              "internalType": "uint256",
              "name": "tokenId",
              "type": "uint256"
            },
            {
              "internalType": "uint256",
              "name": "amount",
              "type": "uint256"
            },
            {
              "internalType": "uint256",
              "name": "price",
              "type": "uint256"
            },
            {
              "internalType": "string",
              "name": "slug",
              "type": "string"
            },
            {
              "internalType": "string",
              "name": "ipfsHash",
              "type": "string"
            }
          ],
          "internalType": "struct AccessToken.Token[]",
          "name": "",
          "type": "tuple[]"
        }
      ],
      "stateMutability": "view",
      "type": "function"
    },
    {
      "inputs": [
        {
          "internalType": "address",
          "name": "account",
          "type": "address"
        },
        {
          "internalType": "address",
          "name": "operator",
          "type": "address"
        }
      ],
      "name": "isApprovedForAll",
      "outputs": [
        {
          "internalType": "bool",
          "name": "",
          "type": "bool"
        }
      ],
      "stateMutability": "view",
      "type": "function"
    },
    {
      "inputs": [
        {
          "internalType": "string",
          "name": "slug",
          "type": "string"
        },
        {
          "internalType": "uint256",
          "name": "amount",
          "type": "uint256"
        },
        {
          "internalType": "uint256",
          "name": "price",
          "type": "uint256"
        },
        {
          "internalType": "string",
          "name": "ipfsHash",
          "type": "string"
        }
      ],
      "name": "mint",
      "outputs": [],
      "stateMutability": "nonpayable",
      "type": "function"
    },
    {
      "inputs": [
        {
          "internalType": "address",
          "name": "",
          "type": "address"
        },
        {
          "internalType": "address",
          "name": "",
          "type": "address"
        },
        {
          "internalType": "uint256[]",
          "name": "",
          "type": "uint256[]"
        },
        {
          "internalType": "uint256[]",
          "name": "",
          "type": "uint256[]"
        },
        {
          "internalType": "bytes",
          "name": "",
          "type": "bytes"
        }
      ],
      "name": "onERC1155BatchReceived",
      "outputs": [
        {
          "internalType": "bytes4",
          "name": "",
          "type": "bytes4"
        }
      ],
      "stateMutability": "nonpayable",
      "type": "function"
    },
    {
      "inputs": [
        {
          "internalType": "address",
          "name": "",
          "type": "address"
        },
        {
          "internalType": "address",
          "name": "",
          "type": "address"
        },
        {
          "internalType": "uint256",
          "name": "",
          "type": "uint256"
        },
        {
          "internalType": "uint256",
          "name": "",
          "type": "uint256"
        },
        {
          "internalType": "bytes",
          "name": "",
          "type": "bytes"
        }
      ],
      "name": "onERC1155Received",
      "outputs": [
        {
          "internalType": "bytes4",
          "name": "",
          "type": "bytes4"
        }
      ],
      "stateMutability": "nonpayable",
      "type": "function"
    },
    {
      "inputs": [],
      "name": "owner",
      "outputs": [
        {
          "internalType": "address",
          "name": "",
          "type": "address"
        }
      ],
      "stateMutability": "view",
      "type": "function"
    },
    {
      "inputs": [
        {
          "internalType": "uint256",
          "name": "tokenId",
          "type": "uint256"
        }
      ],
      "name": "purchase",
      "outputs": [],
      "stateMutability": "payable",
      "type": "function"
    },
    {
      "inputs": [],
      "name": "renounceOwnership",
      "outputs": [],
      "stateMutability": "nonpayable",
      "type": "function"
    },
    {
      "inputs": [
        {
          "internalType": "address",
          "name": "from",
          "type": "address"
        },
        {
          "internalType": "address",
          "name": "to",
          "type": "address"
        },
        {
          "internalType": "uint256[]",
          "name": "ids",
          "type": "uint256[]"
        },
        {
          "internalType": "uint256[]",
          "name": "amounts",
          "type": "uint256[]"
        },
        {
          "internalType": "bytes",
          "name": "data",
          "type": "bytes"
        }
      ],
      "name": "safeBatchTransferFrom",
      "outputs": [],
      "stateMutability": "nonpayable",
      "type": "function"
    },
    {
      "inputs": [
        {
          "internalType": "address",
          "name": "from",
          "type": "address"
        },
        {
          "internalType": "address",
          "name": "to",
          "type": "address"
        },
        {
          "internalType": "uint256",
          "name": "id",
          "type": "uint256"
        },
        {
          "internalType": "uint256",
          "name": "amount",
          "type": "uint256"
        },
        {
          "internalType": "bytes",
          "name": "data",
          "type": "bytes"
        }
      ],
      "name": "safeTransferFrom",
      "outputs": [],
      "stateMutability": "nonpayable",
      "type": "function"
    },
    {
      "inputs": [
        {
          "internalType": "address",
          "name": "operator",
          "type": "address"
        },
        {
          "internalType": "bool",
          "name": "approved",
          "type": "bool"
        }
      ],
      "name": "setApprovalForAll",
      "outputs": [],
      "stateMutability": "nonpayable",
      "type": "function"
    },
    {
      "inputs": [
        {
          "internalType": "bytes4",
          "name": "interfaceId",
          "type": "bytes4"
        }
      ],
      "name": "supportsInterface",
      "outputs": [
        {
          "internalType": "bool",
          "name": "",
          "type": "bool"
        }
      ],
      "stateMutability": "view",
      "type": "function"
    },
    {
      "inputs": [
        {
          "internalType": "address",
          "name": "newOwner",
          "type": "address"
        }
      ],
      "name": "transferOwnership",
      "outputs": [],
      "stateMutability": "nonpayable",
      "type": "function"
    },
    {
      "inputs": [
        {
          "internalType": "uint256",
          "name": "",
          "type": "uint256"
        }
      ],
      "name": "uri",
      "outputs": [
        {
          "internalType": "string",
          "name": "",
          "type": "string"
        }
      ],
      "stateMutability": "view",
      "type": "function"
    }
  ],
  "bytecode": "0x60806040523480156200001157600080fd5b50604051620023e4380380620023e4833981016040819052620000349162000164565b80620000408162000053565b506200004c336200006c565b506200028d565b805162000068906002906020840190620000be565b5050565b600380546001600160a01b038381166001600160a01b0319831681179093556040519116919082907f8be0079c531659141344cd1fd0a4f28419497f9722a3daafe3b4186f6b6457e090600090a35050565b828054620000cc906200023a565b90600052602060002090601f016020900481019282620000f057600085556200013b565b82601f106200010b57805160ff19168380011785556200013b565b828001600101855582156200013b579182015b828111156200013b5782518255916020019190600101906200011e565b50620001499291506200014d565b5090565b5b808211156200014957600081556001016200014e565b6000602080838503121562000177578182fd5b82516001600160401b03808211156200018e578384fd5b818501915085601f830112620001a2578384fd5b815181811115620001b757620001b762000277565b604051601f8201601f19908116603f01168101908382118183101715620001e257620001e262000277565b816040528281528886848701011115620001fa578687fd5b8693505b828410156200021d5784840186015181850187015292850192620001fe565b828411156200022e57868684830101525b98975050505050505050565b600181811c908216806200024f57607f821691505b602082108114156200027157634e487b7160e01b600052602260045260246000fd5b50919050565b634e487b7160e01b600052604160045260246000fd5b612147806200029d6000396000f3fe6080604052600436106100fd5760003560e01c80638da5cb5b11610095578063e985e9c511610064578063e985e9c5146102e5578063efef39a11461032e578063f23a6e6114610341578063f242432a1461036d578063f2fde38b1461038d57600080fd5b80638da5cb5b14610236578063a22cb4651461025e578063aa6ca8081461027e578063bc197c81146102a057600080fd5b80632ed2a5c0116100d15780632ed2a5c0146101b45780634d82d477146101d45780634e1273f4146101f4578063715018a61461022157600080fd5b8062fdd58e1461010257806301ffc9a7146101355780630e89341c146101655780632eb2c2d614610192575b600080fd5b34801561010e57600080fd5b5061012261011d366004611a65565b6103ad565b6040519081526020015b60405180910390f35b34801561014157600080fd5b50610155610150366004611b4f565b610444565b604051901515815260200161012c565b34801561017157600080fd5b50610185610180366004611bfb565b610455565b60405161012c9190611e1f565b34801561019e57600080fd5b506101b26101ad3660046118d6565b6104e9565b005b3480156101c057600080fd5b506101b26101cf366004611b87565b610580565b3480156101e057600080fd5b506101556101ef366004611a19565b610818565b34801561020057600080fd5b5061021461020f366004611a8e565b610851565b60405161012c9190611dde565b34801561022d57600080fd5b506101b26109b3565b34801561024257600080fd5b506003546040516001600160a01b03909116815260200161012c565b34801561026a57600080fd5b506101b26102793660046119df565b6109e9565b34801561028a57600080fd5b506102936109f8565b60405161012c9190611d38565b3480156102ac57600080fd5b506102cc6102bb3660046118d6565b63bc197c8160e01b95945050505050565b6040516001600160e01b0319909116815260200161012c565b3480156102f157600080fd5b506101556103003660046118a4565b6001600160a01b03918216600090815260016020908152604080832093909416825291909152205460ff1690565b6101b261033c366004611bfb565b610b99565b34801561034d57600080fd5b506102cc61035c36600461197c565b63f23a6e6160e01b95945050505050565b34801561037957600080fd5b506101b261038836600461197c565b610d7b565b34801561039957600080fd5b506101b26103a8366004611883565b610e02565b60006001600160a01b03831661041e5760405162461bcd60e51b815260206004820152602b60248201527f455243313135353a2062616c616e636520717565727920666f7220746865207a60448201526a65726f206164647265737360a81b60648201526084015b60405180910390fd5b506000908152602081815260408083206001600160a01b03949094168352929052205490565b600061044f82610e9d565b92915050565b60606002805461046490611faa565b80601f016020809104026020016040519081016040528092919081815260200182805461049090611faa565b80156104dd5780601f106104b2576101008083540402835291602001916104dd565b820191906000526020600020905b8154815290600101906020018083116104c057829003601f168201915b50505050509050919050565b6001600160a01b03851633148061050557506105058533610300565b61056c5760405162461bcd60e51b815260206004820152603260248201527f455243313135353a207472616e736665722063616c6c6572206973206e6f74206044820152711bdddb995c881b9bdc88185c1c1c9bdd995960721b6064820152608401610415565b6105798585858585610ec2565b5050505050565b6003546001600160a01b031633146105aa5760405162461bcd60e51b815260040161041590611f09565b6006846040516105ba9190611c79565b90815260200160405180910390205460001461060d5760405162461bcd60e51b815260206004820152601260248201527129b63ab39030b63932b0b23c903a30b5b2b760711b6044820152606401610415565b61061b600480546001019055565b600061062660045490565b905060006040518060a00160405280838152602001868152602001858152602001878152602001848152509050816006876040516106649190611c79565b9081526040805191829003602090810190922092909255600580546001810182556000829052845191027f036b6384b5eca791c62761152d0c79bb0604c104a5fb6f4eb0703f3154bb3db08101918255848301517f036b6384b5eca791c62761152d0c79bb0604c104a5fb6f4eb0703f3154bb3db1820155928401517f036b6384b5eca791c62761152d0c79bb0604c104a5fb6f4eb0703f3154bb3db2840155606084015180518594929361073d937f036b6384b5eca791c62761152d0c79bb0604c104a5fb6f4eb0703f3154bb3db3019201906116eb565b50608082015180516107599160048401916020909101906116eb565b505050600082815260076020908152604091829020835181558184015160018201559183015160028301556060830151805184939261079f9260038501929101906116eb565b50608082015180516107bb9160048401916020909101906116eb565b509050506107e7338387604051806040016040528060048152602001630307830360e41b8152506110b3565b61081033308488604051806040016040528060048152602001630307830360e41b8152506111bd565b505050505050565b60008060068360405161082b9190611c79565b9081526020016040518091039020549050600061084885836103ad565b11949350505050565b606081518351146108b65760405162461bcd60e51b815260206004820152602960248201527f455243313135353a206163636f756e747320616e6420696473206c656e677468604482015268040dad2e6dac2e8c6d60bb1b6064820152608401610415565b6000835167ffffffffffffffff8111156108e057634e487b7160e01b600052604160045260246000fd5b604051908082528060200260200182016040528015610909578160200160208202803683370190505b50905060005b84518110156109ab5761097085828151811061093b57634e487b7160e01b600052603260045260246000fd5b602002602001015185838151811061096357634e487b7160e01b600052603260045260246000fd5b60200260200101516103ad565b82828151811061099057634e487b7160e01b600052603260045260246000fd5b60209081029190910101526109a481612012565b905061090f565b509392505050565b6003546001600160a01b031633146109dd5760405162461bcd60e51b815260040161041590611f09565b6109e760006112da565b565b6109f433838361132c565b5050565b60606005805480602002602001604051908101604052809291908181526020016000905b82821015610b9057838290600052602060002090600502016040518060a0016040529081600082015481526020016001820154815260200160028201548152602001600382018054610a6d90611faa565b80601f0160208091040260200160405190810160405280929190818152602001828054610a9990611faa565b8015610ae65780601f10610abb57610100808354040283529160200191610ae6565b820191906000526020600020905b815481529060010190602001808311610ac957829003601f168201915b50505050508152602001600482018054610aff90611faa565b80601f0160208091040260200160405190810160405280929190818152602001828054610b2b90611faa565b8015610b785780601f10610b4d57610100808354040283529160200191610b78565b820191906000526020600020905b815481529060010190602001808311610b5b57829003601f168201915b50505050508152505081526020019060010190610a1c565b50505050905090565b6000600760008381526020019081526020016000206040518060a0016040529081600082015481526020016001820154815260200160028201548152602001600382018054610be790611faa565b80601f0160208091040260200160405190810160405280929190818152602001828054610c1390611faa565b8015610c605780601f10610c3557610100808354040283529160200191610c60565b820191906000526020600020905b815481529060010190602001808311610c4357829003601f168201915b50505050508152602001600482018054610c7990611faa565b80601f0160208091040260200160405190810160405280929190818152602001828054610ca590611faa565b8015610cf25780601f10610cc757610100808354040283529160200191610cf2565b820191906000526020600020905b815481529060010190602001808311610cd557829003601f168201915b50505050508152505090508060400151341015610d515760405162461bcd60e51b815260206004820152601e60248201527f4e6f7420656e6f7567682045544820666f72207472616e73616374696f6e00006044820152606401610415565b6109f43033846001604051806040016040528060048152602001630307830360e41b8152506111bd565b6001600160a01b038516331480610d975750610d978533610300565b610df55760405162461bcd60e51b815260206004820152602960248201527f455243313135353a2063616c6c6572206973206e6f74206f776e6572206e6f7260448201526808185c1c1c9bdd995960ba1b6064820152608401610415565b61057985858585856111bd565b6003546001600160a01b03163314610e2c5760405162461bcd60e51b815260040161041590611f09565b6001600160a01b038116610e915760405162461bcd60e51b815260206004820152602660248201527f4f776e61626c653a206e6577206f776e657220697320746865207a65726f206160448201526564647265737360d01b6064820152608401610415565b610e9a816112da565b50565b60006001600160e01b03198216630271189760e51b148061044f575061044f8261140d565b8151835114610f245760405162461bcd60e51b815260206004820152602860248201527f455243313135353a2069647320616e6420616d6f756e7473206c656e677468206044820152670dad2e6dac2e8c6d60c31b6064820152608401610415565b6001600160a01b038416610f4a5760405162461bcd60e51b815260040161041590611e7a565b3360005b845181101561104d576000858281518110610f7957634e487b7160e01b600052603260045260246000fd5b602002602001015190506000858381518110610fa557634e487b7160e01b600052603260045260246000fd5b602090810291909101810151600084815280835260408082206001600160a01b038e168352909352919091205490915081811015610ff55760405162461bcd60e51b815260040161041590611ebf565b6000838152602081815260408083206001600160a01b038e8116855292528083208585039055908b16825281208054849290611032908490611f62565b925050819055505050508061104690612012565b9050610f4e565b50846001600160a01b0316866001600160a01b0316826001600160a01b03167f4a39dc06d4c0dbc64b70af90fd698a233a518aa5d07e595d983b8c0526c8f7fb878760405161109d929190611df1565b60405180910390a461081081878787878761145d565b6001600160a01b0384166111135760405162461bcd60e51b815260206004820152602160248201527f455243313135353a206d696e7420746f20746865207a65726f206164647265736044820152607360f81b6064820152608401610415565b3361112d81600087611124886115c8565b610579886115c8565b6000848152602081815260408083206001600160a01b03891684529091528120805485929061115d908490611f62565b909155505060408051858152602081018590526001600160a01b0380881692600092918516917fc3d58168c5ae7397731d063d5bbf3d657854427343f4c083240f7aacaa2d0f62910160405180910390a461057981600087878787611621565b6001600160a01b0384166111e35760405162461bcd60e51b815260040161041590611e7a565b336111f3818787611124886115c8565b6000848152602081815260408083206001600160a01b038a168452909152902054838110156112345760405162461bcd60e51b815260040161041590611ebf565b6000858152602081815260408083206001600160a01b038b8116855292528083208785039055908816825281208054869290611271908490611f62565b909155505060408051868152602081018690526001600160a01b03808916928a821692918616917fc3d58168c5ae7397731d063d5bbf3d657854427343f4c083240f7aacaa2d0f62910160405180910390a46112d1828888888888611621565b50505050505050565b600380546001600160a01b038381166001600160a01b0319831681179093556040519116919082907f8be0079c531659141344cd1fd0a4f28419497f9722a3daafe3b4186f6b6457e090600090a35050565b816001600160a01b0316836001600160a01b031614156113a05760405162461bcd60e51b815260206004820152602960248201527f455243313135353a2073657474696e6720617070726f76616c20737461747573604482015268103337b91039b2b63360b91b6064820152608401610415565b6001600160a01b03838116600081815260016020908152604080832094871680845294825291829020805460ff191686151590811790915591519182527f17307eab39ab6107e8899845ad3d59bd9653f200f220920489ca2b5937696c31910160405180910390a3505050565b60006001600160e01b03198216636cdb3d1360e11b148061143e57506001600160e01b031982166303a24d0760e21b145b8061044f57506301ffc9a760e01b6001600160e01b031983161461044f565b6001600160a01b0384163b156108105760405163bc197c8160e01b81526001600160a01b0385169063bc197c81906114a19089908990889088908890600401611c95565b602060405180830381600087803b1580156114bb57600080fd5b505af19250505080156114eb575060408051601f3d908101601f191682019092526114e891810190611b6b565b60015b611598576114f7612059565b806308c379a01415611531575061150c612071565b806115175750611533565b8060405162461bcd60e51b81526004016104159190611e1f565b505b60405162461bcd60e51b815260206004820152603460248201527f455243313135353a207472616e7366657220746f206e6f6e20455243313135356044820152732932b1b2b4bb32b91034b6b83632b6b2b73a32b960611b6064820152608401610415565b6001600160e01b0319811663bc197c8160e01b146112d15760405162461bcd60e51b815260040161041590611e32565b6040805160018082528183019092526060916000919060208083019080368337019050509050828160008151811061161057634e487b7160e01b600052603260045260246000fd5b602090810291909101015292915050565b6001600160a01b0384163b156108105760405163f23a6e6160e01b81526001600160a01b0385169063f23a6e61906116659089908990889088908890600401611cf3565b602060405180830381600087803b15801561167f57600080fd5b505af19250505080156116af575060408051601f3d908101601f191682019092526116ac91810190611b6b565b60015b6116bb576114f7612059565b6001600160e01b0319811663f23a6e6160e01b146112d15760405162461bcd60e51b815260040161041590611e32565b8280546116f790611faa565b90600052602060002090601f016020900481019282611719576000855561175f565b82601f1061173257805160ff191683800117855561175f565b8280016001018555821561175f579182015b8281111561175f578251825591602001919060010190611744565b5061176b92915061176f565b5090565b5b8082111561176b5760008155600101611770565b80356001600160a01b038116811461179b57600080fd5b919050565b600082601f8301126117b0578081fd5b813560206117bd82611f3e565b6040516117ca8282611fe5565b8381528281019150858301600585901b870184018810156117e9578586fd5b855b85811015611807578135845292840192908401906001016117eb565b5090979650505050505050565b600082601f830112611824578081fd5b813567ffffffffffffffff81111561183e5761183e612043565b604051611855601f8301601f191660200182611fe5565b818152846020838601011115611869578283fd5b816020850160208301379081016020019190915292915050565b600060208284031215611894578081fd5b61189d82611784565b9392505050565b600080604083850312156118b6578081fd5b6118bf83611784565b91506118cd60208401611784565b90509250929050565b600080600080600060a086880312156118ed578081fd5b6118f686611784565b945061190460208701611784565b9350604086013567ffffffffffffffff80821115611920578283fd5b61192c89838a016117a0565b94506060880135915080821115611941578283fd5b61194d89838a016117a0565b93506080880135915080821115611962578283fd5b5061196f88828901611814565b9150509295509295909350565b600080600080600060a08688031215611993578081fd5b61199c86611784565b94506119aa60208701611784565b93506040860135925060608601359150608086013567ffffffffffffffff8111156119d3578182fd5b61196f88828901611814565b600080604083850312156119f1578182fd5b6119fa83611784565b915060208301358015158114611a0e578182fd5b809150509250929050565b60008060408385031215611a2b578182fd5b611a3483611784565b9150602083013567ffffffffffffffff811115611a4f578182fd5b611a5b85828601611814565b9150509250929050565b60008060408385031215611a77578182fd5b611a8083611784565b946020939093013593505050565b60008060408385031215611aa0578182fd5b823567ffffffffffffffff80821115611ab7578384fd5b818501915085601f830112611aca578384fd5b81356020611ad782611f3e565b604051611ae48282611fe5565b8381528281019150858301600585901b870184018b1015611b03578889fd5b8896505b84871015611b2c57611b1881611784565b835260019690960195918301918301611b07565b5096505086013592505080821115611b42578283fd5b50611a5b858286016117a0565b600060208284031215611b60578081fd5b813561189d816120fb565b600060208284031215611b7c578081fd5b815161189d816120fb565b60008060008060808587031215611b9c578182fd5b843567ffffffffffffffff80821115611bb3578384fd5b611bbf88838901611814565b955060208701359450604087013593506060870135915080821115611be2578283fd5b50611bef87828801611814565b91505092959194509250565b600060208284031215611c0c578081fd5b5035919050565b6000815180845260208085019450808401835b83811015611c4257815187529582019590820190600101611c26565b509495945050505050565b60008151808452611c65816020860160208601611f7a565b601f01601f19169290920160200192915050565b60008251611c8b818460208701611f7a565b9190910192915050565b6001600160a01b0386811682528516602082015260a060408201819052600090611cc190830186611c13565b8281036060840152611cd38186611c13565b90508281036080840152611ce78185611c4d565b98975050505050505050565b6001600160a01b03868116825285166020820152604081018490526060810183905260a060808201819052600090611d2d90830184611c4d565b979650505050505050565b60006020808301818452808551808352604092508286019150828160051b870101848801865b83811015611dd057603f19898403018552815160a081518552888201518986015287820151888601526060808301518282880152611d9e83880182611c4d565b9250505060808083015192508582038187015250611dbc8183611c4d565b968901969450505090860190600101611d5e565b509098975050505050505050565b60208152600061189d6020830184611c13565b604081526000611e046040830185611c13565b8281036020840152611e168185611c13565b95945050505050565b60208152600061189d6020830184611c4d565b60208082526028908201527f455243313135353a204552433131353552656365697665722072656a656374656040820152676420746f6b656e7360c01b606082015260800190565b60208082526025908201527f455243313135353a207472616e7366657220746f20746865207a65726f206164604082015264647265737360d81b606082015260800190565b6020808252602a908201527f455243313135353a20696e73756666696369656e742062616c616e636520666f60408201526939103a3930b739b332b960b11b606082015260800190565b6020808252818101527f4f776e61626c653a2063616c6c6572206973206e6f7420746865206f776e6572604082015260600190565b600067ffffffffffffffff821115611f5857611f58612043565b5060051b60200190565b60008219821115611f7557611f7561202d565b500190565b60005b83811015611f95578181015183820152602001611f7d565b83811115611fa4576000848401525b50505050565b600181811c90821680611fbe57607f821691505b60208210811415611fdf57634e487b7160e01b600052602260045260246000fd5b50919050565b601f8201601f1916810167ffffffffffffffff8111828210171561200b5761200b612043565b6040525050565b60006000198214156120265761202661202d565b5060010190565b634e487b7160e01b600052601160045260246000fd5b634e487b7160e01b600052604160045260246000fd5b600060033d111561206e57600481823e5160e01c5b90565b600060443d101561207f5790565b6040516003193d81016004833e81513d67ffffffffffffffff81602484011181841117156120af57505050505090565b82850191508151818111156120c75750505050505090565b843d87010160208285010111156120e15750505050505090565b6120f060208286010187611fe5565b509095945050505050565b6001600160e01b031981168114610e9a57600080fdfea264697066735822122029ee242b1d563e4a2f0d60babac685257f3874e743010e3a71d2b40565207d9c64736f6c63430008040033",
  "linkReferences": {},
  "deployedLinkReferences": {}
}